:020000040000FA
:100000001DEF36F0C96E1200A4EF31F09AEC18F033
:100010008BEC12F0FDD7120093EF34F0D9CFE5FF4F
:10002000E1CFD9FF00C0E5FF01C0E5FF02C0E5FF59
:1000300003C0E5FF04C0E5FF05C0E5FF06C0E5FF1E
:1000400007C0E5FF08C0E5FF09C0E5FF0AC0E5FFFE
:100050000BC0E5FF0CC0E5FF0DC0E5FF0EC0E5FFDE
:100060000FC0E5FF10C0E5FF11C0E5FF12C0E5FFBE
:1000700013C0E5FF14C0E5FF15C0E5FF16C0E5FF9E
:1000800017C0E5FF18C0E5FF19C0E5FF1AC0E5FF7E
:100090001BC0E5FF1CC0E5FF1DC0E5FF1EC0E5FF5E
:1000A0001FC0E5FF20C0E5FF21C0E5FF22C0E5FF3E
:1000B00023C0E5FF24C0E5FF25C0E5FF020EDBCF2E
:1000C00000F0030EDBCF01F0040EDBCF02F0025094
:1000D000086E0150076E0050066EE56A100EE56E60
:1000E0000850E56E0750E56E0650E56E800EE56E31
:1000F0000F0EE56E230EE56E73EC2AF0080EE12676
:100100002BCF03F02CCF04F02DCF05F02ECF06F02F
:1001100003C007F004C008F005C009F006C00AF0EB
:10012000D8800AAED8900AE30A1E091E081E076C82
:1001300005E1082A03E1092AD8B40A2A23CF0BF0E3
:1001400024CF0CF0E86A0F0124BFFF0E0D6E0E6E77
:10015000D8902731106E26310F6ED89010320F32A2
:100160002851E840E840C00B10122841E8403F0BFE
:10017000E8BAC009116E126A11BE12680F500B5C0A
:100180000F6E10500C58106E11500D58116E125009
:100190000E58126E800F810F08E1FF0E115C05E111
:1001A000FF0E105C02E1FE0E0F5CD8A04ED0125084
:1001B000800F800F08E1000E115C05E1000E105C5D
:1001C00002E1030E0F5CD8B040D00A340A30166E3C
:1001D0000930156E0830146E0730136E31CF17F0EA
:1001E00032CF18F0E86A0F0132BFFF0E196E800F90
:1001F000F36E1650800FF35C08E11550195C05E1B1
:100200001450185C02E11350175C1FE30C50156E7C
:1002100015260D34166ED890153616360B44E84464
:10022000FC0B146E0B50E844E844030B15120F014D
:10023000256B1450266F1550276F1650286F2B6BA7
:100240002C6B2D6B2E6BB0EF04F00850076E09502D
:10025000086ED89008320732D890083207320A5018
:10026000E840E840C00B08120A40E8403F0BE8BAFB
:10027000C0090A6A083408300A6E0730096EE86A55
:100280000ABEFF0E0B6E0C6E07C00DF008C00EF01C
:10029000E86A08BEFF0E136EE56E1350E56E0E5051
:1002A000E56E0D50E56E0C50E56E0B50E56E0A5094
:1002B000E56E0950E56EFEEC20F0096EF3CF0AF012
:1002C000F4CF0BF0E9CF0CF0080EE12631CF0DF0A2
:1002D00032CF0EF0E86A0F0132BFFF0E136E146EBC
:1002E000E56E1350E56E0E50E56E0D50E56E0C5048
:1002F000E56E0B50E56E0A50E56E0950E56EE6ECD2
:1003000023F0096EF3CF0AF0080EE12629CF0BF097
:100310002ACF0CF0E86A0F012ABFFF0E156E0C50B1
:10032000196E192615341A6ED89019361A360B44E0
:10033000E844FC0B186E0B50E844E844030B191218
:10034000176AD88006AED890D8B064D109C00BF037
:100350000AC00CF0E86A0ABEFF0E156E800FF36E3D
:100360001250800FF35C08E11150155C05E110504C
:100370000C5C02E10F500B5CD8B024D10650800F0A
:10038000F36E1A50800FF35C08E11950055C05E12B
:100390001850045C02E11750035CD8B0ECD02FCFAA
:1003A0000BF030CF0CF0E86A0F0130BFFF0E156E76
:1003B000166E03500B2604500C22055015220650D1
:1003C00016220B500F012B6F0C502C6F15502D6FF8
:1003D00016502E6F31CF0BF032CF0CF02FCF15F01F
:1003E00030CF16F00C50800FF36E1650800FF35C78
:1003F00002E115500B5CD8B0A2D02BCF1BF02CCF54
:100400001CF02DCF1DF02ECF1EF0D8901D30206E89
:100410001C301F6ED89020321F321E50E840E8403A
:10042000C00B20121E40E8403F0BE8BAC009226A08
:100430001F50076E2050086E08340830206E0730B9
:100440001F6EE86A20BEFF0E216E226E07C023F0E9
:1004500008C024F0E86A08BEFF0E256EE56E255040
:10046000E56E2450E56E2350E56E2250E56E215076
:10047000E56E2050E56E1F50E56EFEEC20F01F6E1D
:10048000F3CF20F0F4CF21F0E9CF22F0080EE126DF
:100490000BC023F00CC024F0E86A0CBEFF0E256EE2
:1004A000E56E2550E56E2450E56E2350E56E225032
:1004B000E56E2150E56E2050E56E1F50E56EE6ECCE
:1004C00023F01F6EF3CF20F0080EE1261F50096EB7
:1004D00020500A6E09C01FF00AC020F0E86A0ABE68
:1004E000FF0E216E226E1250800FF36E2250800F8D
:1004F000F35C08E12150115C05E12050105C02E141
:100500001F500F5C1CE20B50155C0B6E0C50165804
:100510000C6EE86A0CBEFF0E156E166E0B501B5E5D
:100520000C501C5A15501D5A16501E5A1B500F01C4
:100530002B6F1C502C6F1D502D6F1E502E6F1A509C
:10054000800FF36E0F012E51800FF35C08E12D51E7
:10055000195C05E12C51185C02E12B51175CD8B0F5
:10056000D8D117500F012B6F18502C6F19502D6FC9
:100570001A502E6FCED11A50800FF36E0650800F96
:10058000F35C08E10550195C05E10450185C02E1D8
:100590000350175CD8B0BDD10D50035C0B6E0E50EC
:1005A00004580C6E13500558156E14500658166EEC
:1005B0000B500F012B6F0C502C6F15502D6F1650D8
:1005C0002E6FA7D12FCF0BF030CF0CF0E86A0F01C0
:1005D00030BFFF0E156E166E0D500B260E500C22FE
:1005E00013501522145016220B50035C0B6E0C5046
:1005F00004580C6E15500558156E16500658166E98
:100600000B500F012B6F0C502C6F15502D6F165087
:100610002E6F7FD10A1E096CD8B40A2A09C00BF0CC
:100620000AC00CF0E86A0ABEFF0E156E166E125074
:10063000800FF36E1650800FF35C08E11550115CCB
:1006400005E10C50105C02E10B500F5CD8B03ED1BC
:100650001A1C166E191C156E181C0C6E171C0B6ECE
:100660000B2A04E10C2A02E1154A162A1650800FC3
:10067000F36E0650800FF35C08E10550155C05E150
:1006800004500C5C02E103500B5CD8B0F8D02FCFC3
:1006900017F030CF18F0E86A0F0130BFFF0E196E67
:1006A0001A6E1750035C176E18500458186E1950C4
:1006B0000558196E1A5006581A6E17500F012B6FF5
:1006C00018502C6F19502D6F1A502E6F31CF17F014
:1006D00032CF18F02FCF19F030CF1AF01850800F0A
:1006E000F36E1A50800FF35C02E11950175CD8B01A
:1006F000AAD02BCF1BF02CCF1CF02DCF1DF02ECF6E
:100700001EF0D8901D30206E1C301F6ED890203205
:100710001F321E50E840E840C00B20121E40E84047
:100720003F0BE8BAC009216E226A21BE2268221E50
:10073000211E201E1F6C05E1202A03E1212AD8B4C6
:10074000222A1F50076E2050086E08340830206E91
:1007500007301F6EE86A20BEFF0E216E226EE86A27
:1007600008BEFF0E236EE56E2350E56E0850E56E61
:100770000750E56E2250E56E2150E56E2050E56E83
:100780001F50E56EFEEC20F0076EF3CF08F0F4CFBB
:100790001FF0E9CF20F0080EE12617C021F018C0A5
:1007A00022F0E86A18BEFF0E236EE56E2350E56E58
:1007B0002250E56E2150E56E2050E56E1F50E56E2B
:1007C0000850E56E0750E56EE6EC23F0076EF3CFB8
:1007D00008F0080EE126081E076C02E1082A00E175
:1007E0000750096E08500A6EE86A0ABEFF0E076ECF
:1007F000800FF36E1250800FF35C08E11150075C1C
:1008000005E110500A5C02E10F50095C1CE2175030
:10081000195C176E18501A58186EE86A18BEFF0E49
:10082000076E086E17501B2618501C2207501D22F9
:1008300008501E221B500F012B6F1C502C6F1D5097
:100840002D6F1E502E6F0F012E51800FF36E16501C
:10085000800FF35C08E115502D5D05E10C502C5D17
:1008600002E10B502B5DD8B054D00B500F012B6F11
:100870000C502C6F15502D6F16502E6F4AD006500D
:10088000800FF36E1650800FF35C08E11550055C85
:1008900005E10C50045C02E10B50035CD8B039D088
:1008A0000D500324076E0E500420086E13500520CF
:1008B000096E145006200A6E07500F012B6F085066
:1008C0002C6F09502D6F0A502E6F23D02FCF07F0B9
:1008D00030CF08F0E86A0F0130BFFF0E096E0A6ED4
:1008E00007500D2608500E22095013220A501422D8
:1008F0000D5003260E5004221350052214500622D8
:1009000003500F012B6F04502C6F05502D6F0650B4
:100910002E6FD8900F012D31046E2C31036ED890BC
:10092000043203322E51E840E840C00B04122E413D
:10093000E8403F0BE8BAC009056E066A05BE0668C6
:10094000255103262651042227510522285106222B
:100950000350256F0450266F0550276F0650286FEF
:10096000E56A100EE56E800EE56E0F0EE56E230E45
:10097000E56E0250E56E0150E56E0050E56E73ECD9
:100980002AF0080EE126E4CF25F0E4CF24F0E4CFEE
:1009900023F0E4CF22F0E4CF21F0E4CF20F0E4CF45
:1009A0001FF0E4CF1EF0E4CF1DF0E4CF1CF0E4CF45
:1009B0001BF0E4CF1AF0E4CF19F0E4CF18F0E4CF45
:1009C00017F0E4CF16F0E4CF15F0E4CF14F0E4CF45
:1009D00013F0E4CF12F0E4CF11F0E4CF10F0E4CF45
:1009E0000FF0E4CF0EF0E4CF0DF0E4CF0CF0E4CF45
:1009F0000BF0E4CF0AF0E4CF09F0E4CF08F0E4CF45
:100A000007F0E4CF06F0E4CF05F0E4CF04F0E4CF44
:100A100003F0E4CF02F0E4CF01F0E4CF00F0E4CF44
:100A2000D9FF1200D9CFE5FFE1CFD9FF00C0E5FF24
:100A300001C0E5FF02C0E5FF03C0E5FF04C0E5FF1C
:100A400005C0E5FF06C0E5FF07C0E5FF08C0E5FFFC
:100A500009C0E5FF0AC0E5FF0BC0E5FF0CC0E5FFDC
:100A60000DC0E5FF0EC0E5FF0FC0E5FF10C0E5FFBC
:100A700011C0E5FF12C0E5FF13C0E5FF14C0E5FF9C
:100A800015C0E5FF16C0E5FF17C0E5FF18C0E5FF7C
:100A900019C0E5FF1AC0E5FF1BC0E5FF1CC0E5FF5C
:100AA0001DC0E5FF1EC0E5FF020EDBCF00F0030E08
:100AB000DBCF01F0040EDBCF02F0050EDBCF03F03D
:100AC000060EDBCF04F0070EDBCF05F0080EDBCF00
:100AD00006F0090EDBCF07F00A0EDBCF08F0096A3B
:100AE0000A6A02C00DF00D50800A0DE102500A01A1
:100AF000CC6F0150CB6F0050CA6F0A0E016ECA0E48
:100B0000006E800E026E03C0E9FF04C0F3FF0550C3
:100B100056EC36F00B6E0B50D8B400EF09F00B50CA
:100B2000250A02E0E7EF08F00C6A0D6A0E6A0F6A08
:100B3000106A0A0E116E126A136A146A200E156E7C
:100B40001668176A2B0E186E032A02E3044A052A58
:100B500003C0E9FF04C0F3FF055056EC36F0196EF0
:100B6000250A13E11950E56E0250E56E0150E56E5D
:100B70000050E56EEAEC29F0040EE126094A0A2A43
:100B8000032A02E3044A052ABED71950300A06E1B7
:100B9000300E156E032A02E3044A052A03C0E9FF5A
:100BA00004C0F3FF055056EC36F02D0A06E1010EA5
:100BB000146E032A02E3044A052A03C0E9FF04C0B5
:100BC000F3FF055056EC36F0200A08E1010E176ECF
:100BD000200E186E032A02E3044A052A03C0E9FF27
:100BE00004C0F3FF055056EC36F02B0A06E1010E67
:100BF000176E032A02E3044A052A03C0E9FF04C072
:100C0000F3FF055056EC36F0196E800F4F0F2DE3B1
:100C10001950800F460F29E203C019F004C01AF0E2
:100C200005C01BF019C0E9FF1AC0F3FF1B5056ECBA
:100C300036F01C6E800F500F12E31C50800F460FD1
:100C40000EE213500A0DF3CF1DF01D501C26D00EDE
:100C50001C24136E192A02E31A4A1B2AE3D719C06F
:100C600003F01AC004F01BC005F003C0E9FF04C084
:100C7000F3FF055056EC36F02E0A2EE1032A02E36C
:100C8000044A052A166A03C019F004C01AF005C008
:100C90001BF019C0E9FF1AC0F3FF1B5056EC36F0E9
:100CA0001C6E800F500F12E31C50800F460F0EE297
:100CB00016500A0DF3CF1DF01D501C26D00E1C241B
:100CC000166E192A02E31A4A1B2AE3D719C003F049
:100CD0001AC004F01BC005F003C0E9FF04C0F3FF15
:100CE000055056EC36F0196E6C0A07E1010E0C6ED9
:100CF000032A02E3044A052A09D01950680A06E1CA
:100D0000010E0E6E032A02E3044A052A03C0E9FF1E
:100D100004C0F3FF055056EC36F0750A06E1010EEB
:100D2000106E032A02E3044A052A03C0E9FF04C047
:100D3000F3FF055056EC36F0196E730A05E1010E0B
:100D40000D6E200E156E3FD01950780A03E1100E7B
:100D5000116E39D01950580A05E1100E116E010EAE
:100D6000126E31D01950630A02E1116A2CD0195069
:100D70006F0A03E1080E116E26D01950660A03E1CE
:100D8000010E0F6E20D01950640A1DE01950690A37
:100D90001AE0105005E0FF0E03260422052213D0AE
:100DA0001950E56E0250E56E0150E56E0050E56E9B
:100DB000EAEC29F0040EE126094A0A2A032A02E392
:100DC000044A052AA0D60D5021E00650030F0D6EEF
:100DD000000E0720196E000E08201A6E0DC006F0D6
:100DE00019C007F01AC008F0FD0E0D26FF0E1922DB
:100DF0001A220DC0E9FF19C0F3FF1A5032EC35F08A
:100E00000D6EF3CF19F0F4CF1AF032D10F50D8B4E1
:100E10003ED00650040F0F6E000E07201B6E000E12
:100E200008201C6E0FC006F01BC007F01CC008F0A5
:100E3000FC0E0F26FF0E1B221C220FC0E9FF1BC059
:100E4000F3FF1C50B8EC34F00F6EF3CF1BF0F4CF6F
:100E50001CF0E9CF1DF0040E196E000E0D6E800E11
:100E60001A6E1650E56E240EE56E040EE56E000E49
:100E7000E56E1D50E56E1C50E56E1B50E56E0F5083
:100E8000E56EECEC1FF0080EE1261668F1D016684E
:100E90000C5023E00650040F0C6E000E07200F6E5E
:100EA000000E08201B6E0CC006F00FC007F01BC020
:100EB00008F0FC0E0C26FF0E0F221B220CC0E9FFCF
:100EC0000FC0F3FF1B50B8EC34F00C6EF3CF0FF0F3
:100ED000F4CF1BF0E9CF1CF06AD00E5032E0065080
:100EE000020F0E6E000E07201D6E000E08201E6EF3
:100EF0000EC006F01DC007F01EC008F0FE0E0E2644
:100F0000FF0E1D221E220EC0E9FF1DC0F3FF1E5062
:100F1000F1EC35F00E6E0EC00CF0E86A0EBEFF0E5E
:100F20000F6E1B6E1C6E11500A0A03E11050D8B4EC
:100F30003ED00C500E6E0EC00CF00F6A1B6A1C6A7D
:100F400036D00650020F0E6E000E07201D6E000EEA
:100F500008201E6E0EC006F01DC007F01EC008F06F
:100F6000FE0E0E26FF0E1D221E220EC0E9FF1DC022
:100F7000F3FF1E50F1EC35F00E6EF3CF1DF00EC0F6
:100F80000CF01DC00FF0E86A1DBEFF0E1B6E1C6E3C
:100F900011500A0A02E110500AE00C500E6E0F5078
:100FA0001D6E0EC00CF01DC00FF01B6A1C6A040EF3
:100FB000196E010E0D6E800E1A6E1150D8B440D00D
:100FC000105013E01150E56E040EE56E010EE56E53
:100FD0001C50E56E1B50E56E0F50E56E0C50E56E33
:100FE0000AEC23F0070EE12612D01150E56E040E34
:100FF000E56E010EE56E1C50E56E1B50E56E0F5060
:10100000E56E0C50E56E17EC2DF0070EE12617503B
:101010002FE00DC0E9FF19C0F3FF1A5056EC36F06F
:101020002D0A26E0FF0E0D2619221A2218C0E5FF10
:101030000DC0E9FF19C0F3FF1A50D4EC36F018D0F8
:101040000CC0E5FF0DC0E9FF19C0F3FF1A50D4EC46
:1010500036F00D50010F0C6E000E19200E6E000EB2
:101060001A20E56A0CC0E9FF0EC0F3FFD4EC36F09D
:101070000DC00CF019C00EF01AC00FF013C010F024
:10108000105010E00CC0E9FF0EC0F3FF0F5056ECFB
:1010900036F0176E175006E00C2A02E30E4A0F2AAC
:1010A0001006EED710C013F014501EE109C00CF06A
:1010B0000AC00EF010C00FF00F5010E01550E56E92
:1010C0000250E56E0150E56E0050E56EEAEC29F045
:1010D000040EE1260C4A0E2A0F06EED70CC009F0CA
:1010E0000EC00AF00FC013F016C00CF00DC00DF0CA
:1010F00019C00EF01AC00FF009C010F00AC015F0A8
:101100000DC0E9FF0EC0F3FF0F5056EC36F0166E1F
:101110001650D8B43ED00CC016F0176A161E171E13
:101120001650171005E00CC016F00C06165031E0F2
:101130000DC0E9FF0EC0F3FF0F5056EC36F0116EF4
:10114000125010E01150E56EAEEC35F0166EE6521E
:10115000165004E01150166E169A02D011C016F007
:1011600016C011F01150E56E0250E56E0150E56EAB
:101170000050E56EEAEC29F0040EE1260D2A02E3A8
:101180000E4A0F2A104A152A1350D8B4B9D713069D
:10119000B7D710C009F015C00AF014502BE010C0EA
:1011A0000CF015C00DF013C00EF00E501FE0200E15
:1011B000E56E0250E56E0150E56E0050E56EEAEC1A
:1011C00029F0040EE1260C4A0D2A0E06EED70B502C
:1011D000E56E0250E56E0150E56E0050E56EEAECFA
:1011E00029F0040EE126094A0A2A04D00CC009F0AD
:1011F0000DC00AF0032A02E3044A052A83EF05F032
:101200000AC0F3FF0950E4CF1EF0E4CF1DF0E4CF95
:101210001CF0E4CF1BF0E4CF1AF0E4CF19F0E4CFD8
:1012200018F0E4CF17F0E4CF16F0E4CF15F0E4CFD8
:1012300014F0E4CF13F0E4CF12F0E4CF11F0E4CFD8
:1012400010F0E4CF0FF0E4CF0EF0E4CF0DF0E4CFD8
:101250000CF0E4CF0BF0E4CF0AF0E4CF09F0E4CFD8
:1012600008F0E4CF07F0E4CF06F0E4CF05F0E4CFD8
:1012700004F0E4CF03F0E4CF02F0E4CF01F0E4CFD8
:1012800000F0E4CFD9FF1200D9CFE5FFE1CFD9FFBD
:1012900000C0E5FF01C0E5FF02C0E5FF03C0E5FFB8
:1012A00004C0E5FF05C0E5FF06C0E5FF07C0E5FF98
:1012B00008C0E5FF09C0E5FF0AC0E5FF0BC0E5FF78
:1012C0000CC0E5FF0DC0E5FF020EDBCF00F0030E02
:1012D000DBCF01F0040EDBCF02F00050090F066EE9
:1012E000000E0120076E000E0220086E0B6E0750E4
:1012F0000A6E0650096EE56A0D0EE56E0B50E56E3E
:101300000A50E56E0950E56E800EE56E0A0EE56E38
:10131000720EE56E73EC2AF0080EE12600C009F0AB
:1013200001C00AF002C00BF0E56AE56E0B50E56EF5
:101330000A50E56E0950E56E800EE56E040EE56E0E
:10134000810EE56E73EC2AF0080EE12681C403F0ED
:101350000350010A04E00350030A01E01FD10A010F
:101360007A510A01875D036E0A017B510A0188598F
:10137000046E0A017C510A0189590A017D510A0152
:101380008A5903500A01D16F0450D26F0A01875164
:101390000A017A6F0A0188510A017B6F0A0189519B
:1013A0000A017C6F0A018A510A017D6F0A01D1513D
:1013B000D211D8A47FD0A2EC33F0036EF3CF04F0A7
:1013C000F4CF05F0E9CF09F00A017F510A6E805190
:1013D0000B6E81510C6E82510D6E0A50035E0B50E4
:1013E000045A0C50055A0D50095A03500A01906FC7
:1013F0000450916F0550926F7F0E0914936F0A018C
:101400007EB125D00A0191359331046E9231036E7D
:10141000043404320332000E04BEFF0E096E056E62
:1014200086C40AF00B6A0C6A0D6A0D50800FF36EC9
:101430000950800FF35C08E105500C5C05E1045095
:101440000B5C02E103500A5C02E20A017E810A01A0
:101450007EB14AD076CA03F077CA04F078CA05F0A4
:1014600079CA09F00A019351800FF36E0950800F79
:10147000F35C08E10550925D05E10450915D02E1E5
:101480000350905D08E203C090FA04C091FA05C0D1
:1014900092FA09C093FA0A018BA303D0010E036EDE
:1014A00001D0036803C0D1FA0A01D26B03AE01D0A8
:1014B000D2691AD00A017E9183CA90FA84CA91FA3D
:1014C00085CA92FA86CA93FA0A0190510A01766F88
:1014D0000A0191510A01776F0A0192510A01786F4E
:1014E0000A0193510A01796F0A019351800F800F0D
:1014F00008E1000E925D05E1000E915D02E1010E32
:10150000905D06E20A01946B956B966B976B46D0E3
:101510000A019051036E9151046E9251056E9351E0
:10152000E56E0550E56E0450E56E0350E56E010E64
:10153000E56E000EE56AE56AE56A4AEC28F0036E9E
:10154000F3CF04F0F4CF05F0E9CF09F0080EE1265F
:10155000D1CA0AF0D2CA0BF0E86A0A01D2BFFF0E64
:101560000C6E0D6E0950E56E0550E56E0450E56E8B
:101570000350E56E0D50E56E0C50E56E0B50E56EB8
:101580000A50E56EFEEC20F00A01946FF3CF95FA55
:10159000F4CF96FAE9CF97FA080EE126020E04017D
:1015A000815DD8A045D10A018BA142D10050230F03
:1015B000036E000E0120046E000E0220E56E045042
:1015C000E56E0350E56E0EEC00F0030EE1260050D0
:1015D000230F036E000E0120046E000E0220056E24
:1015E000020E0326000E0422052203C0E9FF04C0F8
:1015F000F3FF0550B8EC34F0F3CF04F0F4CF05F06E
:10160000E9CF09F00450036E0550046ED8900432FF
:101610000332D890043203320950E840E840C00B4E
:1016200004120940E8403F0BE8BAC009056E096A98
:1016300005BE09680A018751035C0A01986F0A0117
:10164000885104580A01996F0A01895105580A0105
:101650009A6F0A018A5109580A019B6FD8809BAF83
:10166000D89022E30401831D046E821D036E034A99
:10167000042AE86A04BEFF0E056E096E0A019B513A
:10168000800FF36E0950800FF35C08E105509A5DFE
:1016900005E10450995D02E10350985D05E30A01FC
:1016A000986B996B9A6B9B6B0A019B51800F800F13
:1016B00008E1000E9A5D05E1000E995D02E1010E60
:1016C000985D1EE382C403F083C404F0E86A040159
:1016D00083BFFF0E056E800FF36E0A019B51800FD2
:1016E000F35C08E19A51055C05E19951045C02E163
:1016F0009851035C05E30A01986B996B9A6B9B6B9D
:101700000401875109E0E86CD8900A0198379937AD
:101710009A379B37010FF9E30A019B51800F800F25
:1017200008E1000E9A5D05E1800E995D02E1000E70
:10173000985D07E30A0198697F0E996F9A6B9B6B1E
:1017400014D00A019B51800F810F08E1FF0E9A5DB2
:1017500005E1800E995D02E1000E985D06E20A0146
:10176000986B800E996F9A699B690050330F036ED6
:10177000000E0120046E000E0220056E0A01985131
:10178000096E9951E56E0950E56E0550E56E0450FD
:10179000E56E0350E56E57EC10F0050EE1260401EE
:1017A0008151030A23E10050330F036E000E012024
:1017B000046E000E0220056E0B0E0326000E04229E
:1017C000052203C0E9FF04C0F3FF0550B8EC34F074
:1017D000F3CF04F0F4CF05F00450036E0550046E0F
:1017E00003500A01726F0450736F22D00050330F00
:1017F000036E000E0120046E000E0220056E0B0E1B
:101800000326000E0422052203C0E9FF04C0F3FFF3
:101810000550B8EC34F0F3CF04F0F4CF05F00450E9
:10182000036E0550046E03500A01746F0450756F07
:1018300081C403F00350010A04E00350030A01E0ED
:101840007DD072CA03F073CA04F0E86A0A0173BF5C
:10185000FF0E056E096E0A019451035C0A01986F30
:101860000A01955104580A01996F0A0196510558C9
:101870000A019A6F0A01975109580A019B6F800F5C
:10188000800F08E1000E9A5D05E1800E995D02E18E
:10189000000E985D07E30A0198697F0E996F9A6BB5
:1018A0009B6B14D00A019B51800F810F08E1FF0E42
:1018B0009A5D05E1800E995D02E1000E985D06E2F9
:1018C0000A01986B800E996F9A699B690050440FCA
:1018D000036E000E0120046E000E0220056E0A0148
:1018E0009851096E9951E56E0950E56E0550E56E07
:1018F0000450E56E0350E56E57EC10F0050EE1263E
:10190000440E0026000E012202220B0E0026000EBD
:101910000122022200C0E9FF01C0F3FF0250B8EC2F
:1019200034F0F3CF01F0F4CF02F00150006E02501A
:10193000016E00500A01746F0150756F0850086EF7
:10194000E56A0D0EE56E800EE56E0A0EE56E720E0E
:10195000E56E0850E56E0750E56E0650E56E73ECD7
:101960002AF0080EE126E4CF0DF0E4CF0CF0E4CF2E
:101970000BF0E4CF0AF0E4CF09F0E4CF08F0E4CFB5
:1019800007F0E4CF06F0E4CF05F0E4CF04F0E4CFB5
:1019900003F0E4CF02F0E4CF01F0E4CF00F0E4CFB5
:1019A000D9FF120025642025640A000005C0E5FF68
:1019B00006C0E5FF07C0E5FF08C0E5FF09C0E5FF79
:1019C0000AC0E5FF0BC0E5FF0CC0E5FF0DC0E5FF59
:1019D0000EC0E5FF0FC0E5FF10C0E5FF11C0E5FF39
:1019E00012C0E5FF13C0E5FF14C0E5FF15C0E5FF19
:1019F00016C0E5FF17C0E5FF18C0E5FF19C0E5FFF9
:101A00001AC0E5FF1BC0E5FF1CC0E5FF1DC0E5FFD8
:101A1000000E00B0050F066AF60F02E3062AFCD797
:101A20000A0F056E042E03D0FB0F01E3062A0650B1
:101A300000B0020F00B2050F076AF60F02E3072A93
:101A4000FCD70A0F066E042E03D0FB0F01E3072A12
:101A5000075000B0060F00B2020F00B4050F086A6D
:101A6000F60F02E3082AFCD70A0F076E042E03D0F4
:101A7000FB0F01E3082A085000B2010F00B4020F67
:101A800000B6050F096AF60F02E3092AFCD70A0F10
:101A9000086E042E03D0FB0F01E3092A095000B0A1
:101AA000090F00B2080F00B4060F00B6020F00B80D
:101AB000050F0A6AF60F02E30A2AFCD70A0F096E1D
:101AC000042E03D0FB0F01E30A2A0A5000B0030FD3
:101AD00000B2070F00B4050F00B6010F00B8020FE7
:101AE00000BA050F0B6AF60F02E30B2AFCD70A0FA8
:101AF0000A6E042E03D0FB0F01E30B2A0B5000B03B
:101B0000050F00B4010F00B6030F00B8060F00BAAE
:101B1000020F00BC050F0C6AF60F02E30C2AFCD77B
:101B20000A0F0B6E042E03D0FB0F01E30C2A0C509E
:101B300000B0070F00B2050F00BA010F00BC020F82
:101B400000BE050F0D6AF60F02E30D2AFCD70A0F3F
:101B50000C6E042E03D0FB0F01E30D2A0D5000B0D4
:101B6000070F00B2050F00B4010F00B6020F00B856
:101B7000040F00BA080F00BC060F00BE020F01B030
:101B8000050F0E6AF60F02E30E2AFCD70A0F0D6E40
:101B9000042E03D0FB0F01E30E2A0E5000B0040FF9
:101BA00000B2090F00B4090F00B6080F00B8060F05
:101BB00000BA020F00BC050F00BE010F01B0020FFA
:101BC00001B2050F0F6AF60F02E30F2AFCD70A0FC6
:101BD0000E6E042E03D0FB0F01E30F2A0F5000B04E
:101BE000040F00B2080F00B4070F00B6050F00B8CD
:101BF000010F00BA030F00BC060F00BE030F01B0B7
:101C0000060F01B2020F01B4050F106AF60F02E3CE
:101C1000102AFCD70A0F0F6E042E03D0FB0F01E32E
:101C2000102A105000B0060F00B2020F00B4050FCA
:101C300000B6010F00B8030F00BA060F00BC020F78
:101C400000BE050F01B2010F01B4020F01B6050F6E
:101C5000116AF60F02E3112AFCD70A0F106E042E48
:101C600003D0FB0F01E3112A115000B0040F00B2A2
:101C7000090F00B4080F00B6070F00B8040F00BA30
:101C8000080F00BC070F00BE040F01B0090F01B21E
:101C9000080F01B4060F01B6020F01B8050F126A52
:101CA000F60F02E3122AFCD70A0F116E042E03D09E
:101CB000FB0F01E3122A125000B4010F00B6030F0C
:101CC00000B8070F00BA040F00BC090F00BE090FCF
:101CD00001B0080F01B2070F01B4050F01B6010FE3
:101CE00001B8020F01BA050F136AF60F02E3132AB7
:101CF000FCD70A0F126E042E03D0FB0F01E3132A48
:101D0000135000B0060F00B2020F00B4040F00B66B
:101D1000080F00B8060F00BA030F00BC060F00BE84
:101D2000030F01B0070F01B2050F01B4010F01B697
:101D3000030F01B8060F01BA020F01BC050F146AA8
:101D4000F60F02E3142AFCD70A0F136E042E03D0F9
:101D5000FB0F01E3142A145000B0090F00B2090F61
:101D600000B4080F00B6060F00B8030F00BA070F43
:101D700000BC040F00BE090F01B0080F01B2070F2D
:101D800001B4050F01BA010F01BC020F01BE050F1E
:101D9000156AF60F02E3152AFCD70A0F146E042EFB
:101DA00003D0FB0F01E3152A155000B0050F00B258
:101DB000010F00B4030F00B6070F00B8050F00BCF9
:101DC000010F00BE020F01B0050F01B2010F01B4F7
:101DD000030F01B6070F01B8040F01BA080F01BCC9
:101DE000060F01BE020F02B0050F166AF60F02E3DE
:101DF000162AFCD70A0F156E042E03D0FB0F01E341
:101E0000162A165000B2010F00B4020F00B6040FDC
:101E100000B8090F00BA090F00BC080F00BE060F7A
:101E200001B0020F01B2050F01B8010F01BA020F94
:101E300001BC050F01BE010F02B0020F02B2050F77
:101E4000176AF60F02E3172AFCD70A0F166E042E44
:101E500003D0FB0F01E3172A175000BA010F00BC93
:101E6000030F00BE070F01B0050F01B4010F01B64B
:101E7000020F01B8040F01BA080F01BC060F01BE22
:101E8000030F02B0060F02B2020F02B4050F186A68
:101E9000F60F02E3182AFCD70A0F176E042E03D0A0
:101EA000FB0F01E3182A185001B0010F01B2030F14
:101EB00001B4060F01B6020F01B8040F01BA080FF2
:101EC00001BC070F01BE050F02B2010F02B4020FE1
:101ED00002B6050F196AF60F02E3192AFCD70A0F9A
:101EE000186E042E03D0FB0F01E3192A195001B616
:101EF000010F01B8020F01BA040F01BC090F01BEA6
:101F0000090F02B0090F02B2080F02B4060F02B6A1
:101F1000020F02B8050F1A6AF60F02E31A2AFCD75D
:101F20000A0F196E042E03D0FB0F01E31A2A1A5070
:101F300001BE010F02B0030F02B2070F02B4050F7A
:101F400002B6010F02B8020F02BA050F1B6AF60FA4
:101F500002E31B2AFCD70A0F1A6E042E03D0FB0FD4
:101F600001E31B2A1B5002B4010F02B6030F02B893
:101F7000060F02BA020F02BC050F1C6AF60F02E33D
:101F80001C2AFCD70A0F1B6E042E03D0FB0F01E3A3
:101F90001C2A1C5002BA010F02BC020F02BE050F20
:101FA0001D6AF60F02E31D2AFCD70A0F1C6E042ED1
:101FB00003D0FB0F01E31D2A300FEE6E1B50300FD4
:101FC000EE6E1A50300FEE6E1950300FEE6E185044
:101FD000300FEE6E1750300FEE6E1650300FEE6E63
:101FE0001550300FEE6E1450300FEE6E1350300F50
:101FF000EE6E1250300FEE6E1150300FEE6E10502C
:10200000300FEE6E0F50300FEE6E0E50300FEE6E42
:102010000D50300FEE6E0C50300FEE6E0B50300F37
:10202000EE6E0A50300FEE6E0950300FEE6E085013
:10203000300FEE6E0750300FEE6E0650300FEE6E22
:102040000550300FEE6E170EE4CF1DF0E4CF1CF0FC
:10205000E4CF1BF0E4CF1AF0E4CF19F0E4CF18F08E
:10206000E4CF17F0E4CF16F0E4CF15F0E4CF14F08E
:10207000E4CF13F0E4CF12F0E4CF11F0E4CF10F08E
:10208000E4CF0FF0E4CF0EF0E4CF0DF0E4CF0CF08E
:10209000E4CF0BF0E4CF0AF0E4CF09F0E4CF08F08E
:1020A000E4CF07F0E4CF06F0E4CF05F01200D9CF7B
:1020B000E5FFE1CFD9FF00C0E5FF01C0E5FF02C0A9
:1020C000E5FF03C0E5FF04C0E5FF05C0E5FF06C06E
:1020D000E5FF07C0E5FF08C0E5FF09C0E5FF0AC04E
:1020E000E5FF0BC0E5FF020EDBCF00F0030EDBCFF8
:1020F00001F0040EDBCF02F0050EDBCF03F0060E7D
:10210000DBCF04F002500A6E0150096E0050086ED9
:10211000E56A110EE56E0A50E56E0950E56E08504D
:10212000E56E800EE56E040EE56E240EE56E73EC32
:102130002AF0080EE12633C405F034C406F0E86A3C
:10214000040134BFFF0E076E0A01A36F0650A26F91
:102150000550A16FA06B03C005F004C006F0E86A4B
:1021600004BEFF0E076E086E24C409F0E56AE56A36
:10217000E56A0950E56E0850E56E0750E56E0650B9
:10218000E56E0550E56EFEEC20F00A019C6FF3CF82
:102190009DFAF4CF9EFAE9CF9FFA080EE1260401DA
:1021A0002551D8B4AFD00450800F800F02E1010E4A
:1021B000035C25E304012A51800F7C0F08E1000E27
:1021C000295D05E1000E285D02E1000E275D17E2A2
:1021D00004013251800FF36E0A01A351800FF35CAA
:1021E0000DE1A2510401315D09E10A01A15104018F
:1021F000305D04E10A01A05104012F5D33E3D88072
:1022000004AED890D8A043D004012A51800F840F87
:1022100008E1000E295D05E1000E285D02E1010ED6
:10222000275D35E30A01A31D0A6EA21D096EA11DDB
:10223000046EA01D036E032A04E1042A02E1094A88
:102240000A2A0A50800FF36E04013251800FF35CAA
:1022500008E13151095C05E13051045C02E12F5184
:10226000035C15E2055004012725036E0650282162
:10227000046E07502921096E08502A210A6E035066
:10228000276F0450286F0950296F0A502A6F0401E4
:1022900027390F0B036E2839046EF00B041A03263E
:1022A0002951E838F00B041229390F0B096E2A392D
:1022B0000A6EF00B0A1A0926F00E0AB60A2625C481
:1022C0000BF0E56AE56AE56A0B50E56E0A50E56ECB
:1022D0000950E56E0450E56E0350E56EFEEC20F00B
:1022E000036EF3CF04F0F4CF09F0E9CF0AF0080E43
:1022F000E12603500A019C2704509D2309509E2388
:102300000A509F2304012651D8B46CD02B51055C90
:102310000A01A46F04012C5106580A01A56F04019B
:102320002D5107580A01A66F04012E5108580A01C1
:10233000A76F800F800F08E1010EA65D05E1000E7A
:10234000A55D02E1000EA45D07E3FF0E0A01A46F84
:10235000A56FA66BA76B14D00A01A751800F810F40
:1023600008E1FF0EA65D05E1000EA55D02E1000E8D
:10237000A45D06E20A01A46BA56BFF0EA66FA76F12
:102380000A01A731A6310A6E096A0932A551E8404F
:102390007F0B0912A531A431046E036A033226C4EF
:1023A0000BF0E56AE56AE56A0B50E56E0A50E56EEA
:1023B0000950E56E0450E56E0350E56EFEEC20F02A
:1023C000036EF3CF04F0F4CF09F0E9CF0AF0080E62
:1023D000E12603500A019C2704509D2309509E23A7
:1023E0000A509F23055004012B6F06502C6F075095
:1023F0002D6F08502E6F0A01A351800FF36E0A0152
:102400009F51800FF35C0DE19E510A01A25D09E12D
:102410000A019D510A01A15D04E10A019C510A01D2
:10242000A05D11E20A01A05104012F6F0A01A15120
:102430000401306F0A01A2510401316F0A01A35156
:102440000401326F3AD00A01A31D066EA21D056E6B
:10245000A11D046EA01D036E032A04E1042A02E1FB
:10246000054A062A0A019F51800FF36E0650800F1D
:10247000F35C08E105509E5D05E104509D5D02E1BD
:1024800003509C5D0AE2035004012F6F0450306F2B
:102490000550316F0650326F10D00A019C51040173
:1024A0002F6F0A019D510401306F0A019E510401F2
:1024B000316F0A019F510401326FE56A110EE56E1A
:1024C000800EE56E040EE56E240EE56E0250E56E9C
:1024D0000150E56E0050E56E73EC2AF0080EE1261F
:1024E000E4CF0BF0E4CF0AF0E4CF09F0E4CF08F03A
:1024F000E4CF07F0E4CF06F0E4CF05F0E4CF04F03A
:10250000E4CF03F0E4CF02F0E4CF01F0E4CF00F039
:10251000E4CFD9FF120000C0E5FF01C0E5FF02C013
:10252000E5FF03C0E5FF30EC27F074EC1AF0A2ECF5
:1025300033F0006EF3CF01F0F4CF02F0E9CF03F0F7
:1025400004017C51005E7D51015A7E51025A7F5137
:10255000035A039E3F0E035C08E1FF0E025C05E197
:10256000FF0E015C02E1FF0E005CD8B094EF14F0A6
:10257000A2EC33F0F3CF01F0F4CF02F0E9CF03F097
:10258000880F04017C6F130E01207D6F000E022066
:102590007E6F000E03207F6F04C0E5FFF2CF04F0D2
:1025A000F29E0401A9510A017F6F0401AA510A0198
:1025B000806F0401AB510A01816F0401AC510A0123
:1025C000826F0401AD510A01836F0401AE510A010B
:1025D000846F0401AF510A01856F0401B0510A01F3
:1025E000866F0401B1510A01876F0401B2510A01DB
:1025F000886F0401B3510A01896F0401B4510A01C3
:102600008A6F0401B5510A018B6F0401AD6BAE6B8B
:10261000AF6BB06B04BEF28EE4CF04F0800EE56EBB
:10262000040EE56E930EE56E44EC09F0030EE12610
:102630009EC4D3FA9FC4D4FA0A01D451800F7C0FF0
:1026400002E1000ED35D04E30A01D369030ED46FE7
:102650000A01D451800F840F02E1010ED35D05E21F
:10266000010E0A01D36FFC0ED46F0A01D451800F02
:10267000800F02E1010ED35D10E30A01D451800FF7
:10268000F36E04019751800FF35C03E196510A0148
:10269000D35D03E20A01D36BD46BD8800A01D4AFB7
:1026A000D89015E30401971D016E961D006E004A37
:1026B000012A0150800FF36E0A01D451800FF35CA0
:1026C00002E1D351005C03E20A01D36BD46B040135
:1026D0009AA309D0B5A507D0D8800A01D4AFD89065
:1026E00002E3D36BD46BD8800A01D4AFD89007E350
:1026F000D41D016ED31D006E004A012A04D0D3CA36
:1027000000F0D4CA01F000C0D5FA01C0D6FA0A011F
:10271000D551020BE840010BE838E844F46EBD5097
:10272000DF0BF410BD6ED551010B010BE838F46ED0
:10273000BD50EF0BF410BD6ED635D631016ED531DC
:10274000006E0134013200320050BE6ED8800A01A2
:10275000D4AFD89003E38A98898C02D0899C8A8868
:1027600004C0E5FFF2CF04F0F29E0A0116510A01FF
:102770007F6F0A0117510A01806F0A0118510A017F
:10278000816F0A0119510A01826F0A011A510A0167
:10279000836F0A011B510A01846F0A011C510A014F
:1027A000856F0A011D510A01866F0A011E510A0137
:1027B000876F0A011F510A01886F0A0120510A011F
:1027C000896F0A0121510A018A6F0A0122510A0107
:1027D0008B6F0A011A6B1B6B1C6B1D6B04BEF28E98
:1027E000E4CF04F0800EE56E0A0EE56E000EE56E95
:1027F00044EC09F0030EE1260BCAD3FA0CCAD4FA52
:102800000A01D451800F7C0F02E1000ED35D04E376
:102810000A01D369030ED46F0A01D451800F840FCB
:1028200002E1010ED35D05E2010E0A01D36FFC0E39
:10283000D46F0A01D451800F800F02E1010ED35DE5
:1028400010E30A01D451800FF36E0A010451800F86
:10285000F35C03E103510A01D35D03E20A01D36B88
:10286000D46BD8800A01D4AFD89015E30A01041DB7
:10287000016E031D006E004A012A0150800FF36EA5
:102880000A01D451800FF35C02E1D351005C03E2F2
:102890000A01D36BD46B0A0107A309D022A507D084
:1028A000D8800A01D4AFD89002E3D36BD46BD88020
:1028B0000A01D4AFD89007E3D41D016ED31D006E7A
:1028C000004A012A04D0D3CA00F0D4CA01F000C0E3
:1028D000D5FA01C0D6FA0A01D551020BE840010B26
:1028E000E838E844F46E6650DF0BF410666ED5519C
:1028F000010B010BE838F46E6650EF0BF410666EB6
:10290000D635D631016ED531006E01340132003238
:102910000050676ED8800A01D4AFD89003E38A963E
:10292000898E02D0899E8A86E4CF03F0E4CF02F03C
:10293000E4CF01F0E4CF00F0120000C0E5FF01C0D9
:10294000E5FF02C0E5FF03C0E5FFF0A274D00A0175
:102950006D516E116F11701129E0A2EC33F0006E11
:10296000F3CF01F0F4CF02F0E9CF03F00A016D518B
:10297000005E6E51015A6F51025A7051035A039E04
:10298000000E035C08E1000E025C05E1230E015C11
:1029900002E1280E005CD870006A0036016A00BEB1
:1029A000016800500401366F0150376F33CF6DFA64
:1029B00034CF6EFA35CF6FFA36CF70FAF092006AE4
:1029C000040135B1002A0050010BE844F46E355182
:1029D000FD0BF410356F8B928B968B988B9A0401BC
:1029E0008995899589958995040135A303D0DACA1B
:1029F00000F002D0D9CA00F000C0EDFA040135A3FE
:102A000005D0AACA00F0ABCA01F004D0A8CA00F0F1
:102A1000A9CA01F000C0D7FA01C0D8FA0F014E913F
:102A20000A01D8510F01506F0A01D7510F014F6FA2
:102A30007E920F014E817EA285D10F014E917E9232
:102A4000040135A3C0D0080E0A01ED5DD8B078D1DD
:102A5000FA6AFB6AED35FA36E834FA36FC0B6E0F8B
:102A6000E56E2A0EFA22000EFB22E450F96E47EFC3
:102A700015F05AEF15F06DEF15F080EF15F093EFAC
:102A800015F0A7EF15F0BBEF15F0CFEF15F08B8227
:102A90005DCAEDFA0A01ED51080A01E151D10001C8
:102AA000F1510F01506F0001F0510F014F6F0F01F5
:102AB0004E8146D18B865ECAEDFA0A01ED51080AB5
:102AC00001E13ED10001F3510F01506F0001F251BD
:102AD0000F014F6F0F014E8133D18B885FCAEDFA22
:102AE0000A01ED51080A01E12BD10001F5510F0156
:102AF000506F0001F4510F014F6F0F014E8120D133
:102B00008B8A60CAEDFA0A01ED51080A01E118D179
:102B10000001F7510F01506F0001F6510F014F6F87
:102B20000F014E810DD10401898561CAEDFA0A01B8
:102B3000ED51080A01E104D10001F9510F01506F74
:102B40000001F8510F014F6F0F014E81F9D00401C0
:102B5000898562CAEDFA0A01ED51080A01E1F0D057
:102B60000001FB510F01506F0001FA510F014F6F2F
:102B70000F014E81E5D00401898563CAEDFA0A018F
:102B8000ED51080A01E1DCD00001FD510F01506F49
:102B90000001FC510F014F6F0F014E81D1D0040194
:102BA000898564CAEDFA0A01ED51080A01E1C8D02D
:102BB0000001FF510F01506F0001FE510F014F6FD7
:102BC0000F014E81BDD0080E0A01ED5DD8B0B8D01E
:102BD000FA6AFB6AED35FA36E834FA36FC0BEE0F8A
:102BE000E56E2B0EFA22000EFB22E450F96E07EF81
:102BF00016F01AEF16F02DEF16F040EF16F053EF27
:102C000016F067EF16F07BEF16F08EEF16F08B8262
:102C100055CAEDFA0A01ED51080A01E191D000010F
:102C2000E1510F01506F0001E0510F014F6F0F0193
:102C30004E8186D08B8656CAEDFA0A01ED51080AFC
:102C400001E17ED00001E3510F01506F0001E2511C
:102C50000F014F6F0F014E8173D08B8857CAEDFA69
:102C60000A01ED51080A01E16BD00001E5510F01A5
:102C7000506F0001E4510F014F6F0F014E8160D082
:102C80008B8A58CAEDFA0A01ED51080A01E158D0C1
:102C90000001E7510F01506F0001E6510F014F6F26
:102CA0000F014E814DD00401898559CAEDFA0A0100
:102CB000ED51080A01E144D00001E9510F01506FC4
:102CC0000001E8510F014F6F0F014E8139D004010F
:102CD00089855ACAEDFA0A01ED51080A01E130D09E
:102CE0000001EB510F01506F0001EA510F014F6FCE
:102CF0000F014E8125D0040189855BCAEDFA0A01D6
:102D0000ED51080A1DE00001ED510F01506F000167
:102D1000EC510F014F6F0F014E8112D004018985D4
:102D20005CCAEDFA0A01ED51080A0AE00001EF5110
:102D30000F01506F0001EE510F014F6F0F014E81D7
:102D400008EC22F0E4CF03F0E4CF02F0E4CF01F08E
:102D5000E4CF00F01200D9CFE5FFE1CFD9FF00C0EA
:102D6000E5FF01C0E5FF02C0E5FF03C0E5FF04C0C9
:102D7000E5FF05C0E5FF06C0E5FF07C0E5FF08C0A9
:102D8000E5FF09C0E5FF0AC0E5FF020EDBCF00F05A
:102D9000030EDBCF01F0040EDBCF02F0036A046AFE
:102DA000CCEC33F0056EFE0A01E077D0ECEC2EF0AF
:102DB000CCEC33F0066E030E065CD8A05AD0060E9B
:102DC000065CD8B056D0FD0E0624076EFA6AFB6A80
:102DD0000734FA36E834FA36FC0BEA0FE56E2D0EAE
:102DE000FA22000EFB22E450F96EFBEF16F00DEF15
:102DF00017F026EF17F00050090F076E000E0120A4
:102E0000086E000E022007C0E9FF08C0F3FFF1ECD6
:102E100035F0036EF3CF04F02CD00050090F076E8D
:102E2000000E0120086E000E0220096E020E072619
:102E3000000E0822092207C0E9FF08C0F3FF09506D
:102E4000F1EC35F0036EF3CF04F013D00050070F10
:102E5000076E000E0120086E000E022007C0E9FF79
:102E600008C0F3FF56EC36F0010B076E07C003F005
:102E7000046A06C007F00450E56E0350E56EE56A8B
:102E80000750E56E000EE56E190EE56EA40EE56EB8
:102E900071EC30F0070EE12634D1070E055CD8B096
:102EA00030D1FA6AFB6A0534FA36E834FA36FC0B9C
:102EB000C00FE56E2E0EFA22000EFB22E450F96ED2
:102EC0006EEF17F089EF17F09BEF17F0ADEF17F0EB
:102ED000DFEF17F015EF18F034EF18F00050230F64
:102EE000036E000E0120046E000E0220E56E0450F9
:102EF000E56E0350E56E62EC1DF0030EE126020E56
:102F0000E56E00C0E9FF01C0F3FF0250D4EC36F0DB
:102F1000F8D00050330F036E000E0120046E000E37
:102F20000220E56E0450E56E0350E56EAEEC1EF037
:102F3000030EE126E6D00050440F036E000E012080
:102F4000046E000E0220E56E0450E56E0350E56E3F
:102F5000AEEC1EF0030EE126D4D00050090F036E34
:102F6000000E0120046E000E0220056ECCEC33F042
:102F70000A6E096AE56A0AC0F4FF03C0E9FF04C0EB
:102F8000F3FF0550B1EC36F0CCEC33F0086A0926BB
:102F900008500A2209C0E5FF0AC0F4FF03C0E9FF98
:102FA00004C0F3FF0550B1EC36F0010EE56E00C031
:102FB000E9FF01C0F3FF0250D4EC36F0A2D000507C
:102FC000090F036E000E0120046E000E0220056E34
:102FD000020E0326000E04220522CCEC33F00A6E0A
:102FE000096AE56A0AC0F4FF03C0E9FF04C0F3FF01
:102FF0000550B1EC36F0CCEC33F0086A09260850E5
:103000000A2209C0E5FF0AC0F4FF03C0E9FF04C0BB
:10301000F3FF0550B1EC36F0E56A00C0E9FF01C0EE
:10302000F3FF0250D4EC36F06CD00050070F036E63
:10303000000E0120046E000E0220056ECCEC33F071
:10304000010BF46E03C0E9FF04C0F3FF055056EC1A
:1030500036F0FE0BF410E56E03C0E9FF04C0F3FF89
:103060000550D4EC36F04DD0CCEC33F0066E005069
:10307000160F036E000E0120046E000E0220056E76
:1030800003500C0F076E000E0420086E000E052082
:10309000096E0650010BF46E07C0E9FF08C0F3FF8C
:1030A000095056EC36F0FE0BF410E56E07C0E9FF50
:1030B00008C0F3FF0950D4EC36F00650010A21E1B4
:1030C000080E0326000E04220522E56AF46AF66A59
:1030D000F76A03C0E9FF04C0F3FF055067EC36F060
:1030E000230E0026000E01220222E56AE56A025044
:1030F000E56E0150E56E0050E56EBDEC27F0050E63
:10310000E126E4CF0AF0E4CF09F0E4CF08F0E4CF01
:1031100007F0E4CF06F0E4CF05F0E4CF04F0E4CF0D
:1031200003F0E4CF02F0E4CF01F0E4CF00F0E4CF0D
:10313000D9FF120000C0E5FF01C0E5FF02C0E5FFB6
:1031400003C0E5FF05C0E5FF05EC37F0A2EC33F066
:10315000F3CF01F0F4CF02F0E9CF03F0880F0401C0
:103160007C6F130E01207D6F000E02207E6F000E1B
:1031700003207F6FD6EC28F08A98899C8B84040109
:1031800089859398929C9494040192959283800EE1
:10319000006E040E016E0F0E036E380E00260350F3
:1031A00001220F0E036E800E005E0350015A800E46
:1031B000026E040E036E0F0E056E380E02260550C9
:1031C00003220F0E056E800E025E0550035A02C0E8
:1031D000E9FF03C0EAFFEFCF02F0029200C0E9FF6F
:1031E00001C0EAFF02C0EFFF9283800E006E040E62
:1031F000016E0F0E036E380E0026035001220F0ED3
:10320000036E800E005E0350015A800E026E040EA3
:10321000036E0F0E056E380E0226055003220F0EA8
:10322000056E800E025E0550035A02C0E9FF03C01E
:10323000EAFFEFCF02F0029200C0E9FF01C0EAFF0F
:1032400002C0EFFF9283800E006E040E016E0F0E1F
:10325000036E380E0026035001220F0E036E800EFF
:10326000005E0350015A800E026E040E036E0F0EB4
:10327000056E380E0226055003220F0E056E800ED5
:10328000025E0550035A02C0E9FF03C0EAFFEFCF18
:1032900002F0029200C0E9FF01C0EAFF02C0EFFFA6
:1032A0000C0EBD6EBD9ABD98BE6AB96AB98604019E
:1032B000936B020E946F956B0A0E966F976B100EC0
:1032C000986F070E996F9A919A83800EE56E040E9F
:1032D000E56EB60EE56E40EC2FF0030EE126800E93
:1032E000E56E040EE56ED70EE56E7CEC25F0030E60
:1032F000E126800EE56E040EE56EC60EE56E7CECF2
:1033000025F0030EE1260401B16BB26BB36BB46B15
:10331000B591B5959C6B9D6B9E6B9F6BA46BA56BDC
:10332000A66BA76B8A96899E8B80040189859396EC
:10333000929E9490040192959283800E006E040EEA
:10334000016E0F0E036E380E0026035001220F0E81
:10335000036E800E005E0350015A800E026E040E52
:10336000036E0F0E056E380E0226055003220F0E57
:10337000056E800E025E0550035A02C0E9FF03C0CD
:10338000EAFFEFCF02F0029200C0E9FF01C0EAFFBE
:1033900002C0EFFF9283800E006E040E016E0F0ECE
:1033A000036E380E0026035001220F0E036E800EAE
:1033B000005E0350015A800E026E040E036E0F0E63
:1033C000056E380E0226055003220F0E056E800E84
:1033D000025E0550035A02C0E9FF03C0EAFFEFCFC7
:1033E00002F0029200C0E9FF01C0EAFF02C0EFFF55
:1033F0009283800E006E040E016E0F0E036E380E67
:103400000026035001220F0E036E800E005E035053
:10341000015A800E026E040E036E0F0E056E380EFA
:103420000226055003220F0E056E800E025E055027
:10343000035A02C0E9FF03C0EAFFEFCF02F0029295
:1034400000C0E9FF01C0EAFF02C0EFFF0C0E666E8C
:10345000669A6698676A0A01006B020E016F026B3A
:103460000A0E036F046B100E056F070E066F0791AF
:103470000783800EE56E0A0EE56E230EE56E40ECC6
:103480002FF0030EE126800EE56E0A0EE56E440E67
:10349000E56E7CEC25F0030EE126800EE56E0A0E4B
:1034A000E56E330EE56E7CEC25F0030EE1260A0195
:1034B0001E6B1F6B206B216B22912295096B0A6B8F
:1034C0000B6B0C6B116B126B136B146BE4CF05F071
:1034D000E4CF03F0E4CF02F0E4CF01F0E4CF00F05A
:1034E000120043002563000000C0E5FF01C0E5FFB6
:1034F00002C0E5FF03C0E5FF04C0E5FF05C0E5FF2E
:1035000006C0E5FF07C0E5FF08C0E5FF09C0E5FF0D
:103510000AC0E5FF0BC0E5FF0CC0E5FF040135A5BF
:1035200009D0006A35B1002A016A35B3012A00507A
:10353000011801E056D104013595010E006E00C05E
:1035400001F00150D8B453D00104026E8A0E022457
:10355000036E046A040E042203C0E9FF04C0EAFFFC
:10356000EFCF05F00550020DF450076EF3CF06F0D3
:10357000E80E0626040E072206C0E9FF07C0EAFF90
:10358000EECF06F0EFCF07F08A0E0124086E096A2D
:10359000040E092208C0E9FF09C0EAFFEFCF0AF0D4
:1035A0000A50020DF4500C6EF3CF0BF0E80E0B2610
:1035B000040E0C220BC0E9FF0CC0EAFFEECF0BF0AB
:1035C000EFCF0CF007500C5C02E106500B5C0FE2F1
:1035D00003C0E9FF04C0EAFF0AC0EFFF08C0E9FF2B
:1035E00009C0EAFF05C0EFFF02C001F0AAD7002A18
:1035F000080E005CD8A0A3D7006A040135B1002AE8
:10360000005003E1006A002A01D0006A016A00BE8E
:103610000168D90E00260A0E01228AC402F000C0F9
:10362000E9FF01C0EAFF02C0EFFF006A040135B103
:10363000002A005003E1006A002A01D0006A00500D
:10364000020DF45000BE0208016EF3CF00F0A80E88
:1036500000260A0E012204018A51020DF450036E65
:10366000F3CF02F0E80E0226040E032202C0E9FFA7
:1036700003C0EAFFEECF02F0EFCF03F00250FF08E5
:10368000026EFF0E035600C0E9FF01C0EAFF02C050
:10369000EEFF03C0EFFF006A8A0E0024016E026A8B
:1036A000040E022201C0E9FF02C0EAFFEFCF05F0DD
:1036B000040135B102D0080E0526550E0524016E11
:1036C000026A0A0E02220028036E8A0E0324046E88
:1036D000066A040E062204C0E9FF06C0EAFFEFCF27
:1036E00007F001C0E9FF02C0EAFF07C0EFFF055085
:1036F000020DF450026EF3CF01F0E00E0126000E31
:10370000022204C0E9FF06C0EAFFEFCF04F0045034
:10371000020DF450066EF3CF04F0E80E0426040EFA
:10372000062204C0E9FF06C0EAFFEECF04F0EFCFA7
:1037300006F08A0E0024076E086A040E082207C0ED
:10374000E9FF08C0EAFFEFCF07F00750020DF45081
:10375000086EF3CF07F0E80E0726040E082207C014
:10376000E9FF08C0EAFFEECF07F0EFCF08F00750FF
:10377000045E0850065A0450FF08046EFF0E0656F9
:1037800001C0E9FF02C0EAFF04C0EEFF06C0EFFF80
:1037900003C000F0070E005CD8A07ED791C405F0EE
:1037A000040135B102D0080E0526006A550E052623
:1037B0000A0E002205C0E9FF00C0EAFF080EEF6E06
:1037C000006A040135B1002A0050D880E866D8901C
:1037D000006A00360050010BF46E3551FE0BF410F8
:1037E000356FE4CF0CF0E4CF0BF0E4CF0AF0E4CF78
:1037F00009F0E4CF08F0E4CF07F0E4CF06F0E4CF1F
:1038000005F0E4CF04F0E4CF03F0E4CF02F0E4CF1E
:1038100001F0E4CF00F0120000C0E5FF01C0E5FFB9
:1038200002C0E5FF03C0E5FF04C0E5FF05C0E5FFFA
:1038300006C0E5FF07C0E5FF08C0E5FF09C0E5FFDA
:103840000AC0E5FF0BC0E5FF0CC0E5FF0DC0E5FFBA
:103850000EC0E5FF000E00B0010F00B2020F00B471
:10386000040F00B6080F00B8060F00BA020F00BC24
:10387000040F00BE080F01B0060F01B2020F01B421
:10388000040F01B6080F01B8060F01BA020F01BC00
:10389000040F01BE080F02B0060F02B2020F02B4FD
:1038A000040F02B6080F02B8060F02BA020F02BCDC
:1038B000040F02BE080F056AF60F02E3052AFCD7C3
:1038C0000A0F046E055000B8010F00BA030F00BCC8
:1038D000060F00BE020F01B0050F01B2010F01B4C7
:1038E000020F01B6040F01B8090F01BA090F01BC9C
:1038F000080F01BE060F02B0030F02B2070F02B499
:10390000040F02B6080F02B8070F02BA050F066AC5
:10391000F60F02E3062AFCD70A0F056E065000BE1A
:10392000010F01B0020F01B2050F01BA010F01BC76
:10393000030F01BE070F02B0050F02B4010F02B65C
:10394000020F02B8050F02BA010F02BC030F02BE3C
:10395000060F076AF60F02E3072AFCD70A0F066E66
:10396000075001B4010F01B6020F01B8040F01BAEC
:10397000080F01BC060F01BE020F02B0050F02B214
:10398000010F02B4020F02B6040F02B8080F02BA08
:10399000070F02BC040F02BE080F086AF60F02E30D
:1039A000082AFCD70A0F076E085001BC010F01BEA0
:1039B000030F02B0060F02B2030F02B4060F02B6E5
:1039C000020F02B8040F02BA090F02BC090F02BEAF
:1039D000080F096AF60F02E3092AFCD70A0F086EDE
:1039E000095002B2010F02B4020F02B6050F02BC69
:1039F000010F02BE030F0A6AF60F02E30A2AFCD780
:103A00000A0F096E0A5002B8010F02BA020F02BC77
:103A1000040F02BE080F0B6AF60F02E30B2AFCD755
:103A20000A0F0A6E0B500E6A0EE10A5010E109509F
:103A300012E1085014E1075016E1065018E1055054
:103A40001AE104501CD00E2A300FEE6E0A500E2AD6
:103A5000300FEE6E09500E2A300FEE6E08500E2A0F
:103A6000300FEE6E07500E2A300FEE6E06500E2A03
:103A7000300FEE6E05500E2A300FEE6E04500E2AF7
:103A8000300FEE6E0E50E4CF0EF0E4CF0DF0E4CF29
:103A90000CF0E4CF0BF0E4CF0AF0E4CF09F0E4CF70
:103AA00008F0E4CF07F0E4CF06F0E4CF05F0E4CF70
:103AB00004F0E4CF03F0E4CF02F0E4CF01F0E4CF70
:103AC00000F01200D9CFE5FFE1CFD9FF00C0E5FF3C
:103AD00001C0E5FF02C0E5FF03C0E5FF04C0E5FF4C
:103AE00005C0E5FF06C0E5FF07C0E5FF08C0E5FF2C
:103AF00009C0E5FF0AC0E5FF0BC0E5FF020EDBCF02
:103B000000F0030EDBCF01F0040EDBCF02F0036AFE
:103B1000046ACCEC33F0056EFE0A01E063D0ECECF5
:103B20002EF0CCEC33F0066E06500AE00650010A87
:103B300019E00650020A28E006500A0A37E040D091
:103B40000050060F076E000E0120086E000E0220C6
:103B500007C0E9FF08C0F3FFF1EC35F0036EF3CFC7
:103B600004F02ED000500C0F076E000E0120086EDE
:103B7000000E022007C0E9FF08C0F3FFF1EC35F0AA
:103B8000036EF3CF04F01CD000500E0F076E000E32
:103B90000120086E000E022007C0E9FF08C0F3FFF5
:103BA000F1EC35F0036EF3CF04F00AD000C0E9FF6A
:103BB00001C0F3FF0250F1EC35F0036EF3CF04F0D7
:103BC0000450E56E0350E56EE56A0650E56E000EA2
:103BD000E56E5F0EE56E1E0EE56E71EC30F0070EC1
:103BE000E126A1D005500CE00550010A32E0055055
:103BF000020A01E157D005500A0A01E17CD093D0B6
:103C00000050060F056E000E0120066E000E022009
:103C1000076ECCEC33F00B6E0A6AE56A0BC0F4FF5A
:103C200005C0E9FF06C0F3FF0750B1EC36F0CCEC5D
:103C300033F0096A0A2609500B220AC0E5FF0BC0BF
:103C4000F4FF05C0E9FF06C0F3FF0750B1EC36F002
:103C50006AD000500C0F056E000E0120066E000E9B
:103C60000220076ECCEC33F00B6E0A6AE56A0BC0DB
:103C7000F4FF05C0E9FF06C0F3FF0750B1EC36F0D2
:103C8000CCEC33F0096A0A2609500B220AC0E5FF82
:103C90000BC0F4FF05C0E9FF06C0F3FF0750B1EC0D
:103CA00036F041D000500E0F056E000E0120066E5A
:103CB000000E0220076ECCEC33F00B6E0A6AE56A48
:103CC0000BC0F4FF05C0E9FF06C0F3FF0750B1ECDD
:103CD00036F0CCEC33F0096A0A2609500B220AC0F0
:103CE000E5FF0BC0F4FF05C0E9FF06C0F3FF075076
:103CF000B1EC36F018D0CCEC33F0046E036ACCECA7
:103D000033F0066A0326065004220450E56E035081
:103D1000E56E0250E56E0150E56E0050E56E50EC28
:103D200032F0050EE126E4CF0BF0E4CF0AF0E4CF49
:103D300009F0E4CF08F0E4CF07F0E4CF06F0E4CFD9
:103D400005F0E4CF04F0E4CF03F0E4CF02F0E4CFD9
:103D500001F0E4CF00F0E4CFD9FF1200D9CFE5FFA6
:103D6000E1CFD9FF00C0E5FF01C0E5FF02C0E5FFDC
:103D700003C0E5FF04C0E5FF05C0E5FF06C0E5FFA1
:103D800007C0E5FF08C0E5FF020EDBCF00F0030E21
:103D9000DBCF01F0040EDBCF02F0036A046ACCEC47
:103DA00033F0056EFE0A01E075D0ECEC2EF0CCECA1
:103DB00033F0066E040E065CD8B05AD0FA6AFB6A7D
:103DC0000634FA36E834FA36FC0BDA0FE56E3D0EAF
:103DD000FA22000EFB22E450F96EF5EF1EF001EF1F
:103DE0001FF014EF1FF027EF1FF000C0E9FF01C024
:103DF000F3FF025056EC36F0076E07C003F0046A7A
:103E000037D00050010F076E000E0120086E000E23
:103E1000022007C0E9FF08C0F3FF56EC36F0076E3A
:103E200007C003F0046A24D00050020F076E000E92
:103E30000120086E000E022007C0E9FF08C0F3FF52
:103E400056EC36F0076E07C003F0046A11D000503C
:103E50000F0F076E000E0120086E000E022007C033
:103E6000E9FF08C0F3FFF1EC35F0036EF3CF04F087
:103E70000450E56E0350E56EE56A0650E56E000EEF
:103E8000E56E4C0EE56E180EE56E71EC30F0070E27
:103E9000E1268DD0040E055CD8B089D0FA6AFB6AA1
:103EA0000534FA36E834FA36FC0BBA0FE56E3E0EEE
:103EB000FA22000EFB22E450F96E65EF1FF072EF5C
:103EC0001FF09DEF1FF0B3EF1FF0CCEC33F0036E4B
:103ED00003C0E5FF00C0E9FF01C0F3FF0250D4ECCE
:103EE00036F065D00050010F036E000E0120046E05
:103EF000000E0220056ECCEC33F0066E06C0E5FF26
:103F000003C0E9FF04C0F3FF0550D4EC36F00650BF
:103F1000D8A44DD00050030F036E000E0120046E94
:103F2000000E0220E56AF46AF66AF76A03C0E9FF48
:103F300004C0F3FF67EC36F03AD00050020F036E76
:103F4000000E0120046E000E0220056ECCEC33F052
:103F5000066E06C0E5FF03C0E9FF04C0F3FF05508D
:103F6000D4EC36F024D00F0E0026000E01220222DF
:103F7000CCEC33F0066E056AE56A06C0F4FF00C0BB
:103F8000E9FF01C0F3FF0250B1EC36F0CCEC33F0A6
:103F9000046A05260450062205C0E5FF06C0F4FFAA
:103FA00000C0E9FF01C0F3FF0250B1EC36F0E4CFEE
:103FB00008F0E4CF07F0E4CF06F0E4CF05F0E4CF5B
:103FC00004F0E4CF03F0E4CF02F0E4CF01F0E4CF5B
:103FD00000F0E4CFD9FF1200D9CFE5FFE1CFD9FF40
:103FE00000C0E5FF01C0E5FF02C0E5FF03C0E5FF3B
:103FF00004C0E5FF05C0E5FF06C0E5FF07C0E5FF1B
:1040000008C0E5FF09C0E5FF0AC0E5FF0BC0E5FFFA
:10401000020EDBCF00F0030EDBCF01F0040EDBCF8E
:1040200002F0050EDBCF03F0060EDBCF04F0070E27
:10403000DBCF05F0080EDBCF06F0090EDBCF07F073
:1040400006C008F0060608500EE006500424086E6C
:10405000E86A06BEE8680520096E08C0E9FF09C0E5
:10406000EAFFEF6AEDD700500A01C06F0150C16F3F
:104070000250C26F0350C36FC0CA00F0C1CA01F042
:10408000C2CA02F0C3CA03F0066A086A096A800E4F
:1040900003140A6E065007E1085005E1095003E1D8
:1040A0000A50800A01E012D0039E00500A01C06F3E
:1040B0000150C16F0250C26F0350C36F04C0E9FFCB
:1040C00005C0EAFF2D0EEF6E044A052A0A01C2352B
:1040D000C3357E08006EC051016EC151026E7F0E65
:1040E000C215036E066A038E086A096A0A6A0B6AB9
:1040F000005019E0D88000AED8900EE30850082692
:1041000009360A360B3603BE0880015001260236F6
:1041100003360636002AECD7D89006320332023234
:1041200001320006E5D7085009100A100B1012E002
:104130000550E56E0450E56E0B50E56E0A50E56ED5
:104140000950E56E0850E56E77EC33F0006E060E10
:10415000E12608D004C0E9FF05C0EAFF300EEF6E8B
:10416000010E006E00500426E86A00BEE8680522D1
:10417000075028E004C0E9FF05C0EAFF2E0EEF6EED
:10418000002A044A052A07501808E56E0550E56E16
:104190000450E56E0650E56E0350E56E0250E56E84
:1041A0000150E56EB9EC32F0016E070EE1260150C8
:1041B000002607500426E86A052204C0E9FF05C06E
:1041C000EAFFEF6A0050E4CF0BF0E4CF0AF0E4CF4F
:1041D00009F0E4CF08F0E4CF07F0E4CF06F0E4CF35
:1041E00005F0E4CF04F0E4CF03F0E4CF02F0E4CF35
:1041F00001F0E4CF00F0E4CFD9FF1200D9CFE5FF02
:10420000E1CFD9FF00C0E5FF01C0E5FF02C0E5FF37
:1042100003C0E5FF04C0E5FF05C0E5FF06C0E5FFFC
:1042200007C0E5FF020EDBCF00F0030EDBCF01F08D
:10423000040EDBCF02F0050EDBCF03F0060EDBCF62
:1042400004F0070EDBCF05F0080EDBCF06F0090EF9
:10425000DBCF07F000500A01AC6F0150AD6F025088
:10426000AE6F0350AF6F04500A01B06F0550B16FCD
:104270000650B26F0750B36F0A01AC510A01B20386
:10428000F4CF01F0F3CF00F000500A01B66F0150F7
:10429000B76F0A01AC510A01B003F4CF01F0F3CFBC
:1042A00000F000500A01B46F0150B56F0A01AF5120
:1042B0000A01B003F3CF00F00A01B7510026005005
:1042C000B76F0A01AE510A01B103F3CF00F00A0142
:1042D000B75100260050B76F0A01AE510A01B00372
:1042E000F4CF01F0F3CF00F00A01B6510026B75128
:1042F00001220050B66F0150B76F0A01AD510A019B
:10430000B103F4CF01F0F3CF00F00A01B65100265B
:10431000B75101220050B66F0150B76F0A01AD517D
:104320000A01B203F3CF00F000500A01BB6F0A018B
:10433000AD510A01B003F4CF01F0F3CF00F000500B
:104340000A01B96F0150BA6F0A01AC510A01B303F7
:10435000F3CF00F000500A01BF6F0A01AC510A010F
:10436000B103F4CF01F0F3CF00F000500A01BD6FAC
:104370000150BE6F0A01B86B0A01BC6B0A01B8514B
:104380000A01B425006E0A01B9510A01B521016E76
:104390000A01BA510A01B621026E0A01BB510A0193
:1043A000B721036E0050B46F0150B56F0250B66F65
:1043B0000350B76F0A01BC510A01B425006E0A010F
:1043C000BD510A01B521016E0A01BE510A01B62193
:1043D000026E0A01BF510A01B721036E03C0E9FF53
:1043E00002C0F4FF01C0F3FF0050E4CF07F0E4CFB8
:1043F00006F0E4CF05F0E4CF04F0E4CF03F0E4CF1F
:1044000002F0E4CF01F0E4CF00F0E4CFD9FF1200D6
:1044100000C0E5FF01C0E5FF0A016A51D8B4F5D03C
:10442000A3A81DD0A4A81BD00A01E5510A01E219D6
:1044300005E195EC36F00A01E26BE7D0000E0A01C7
:10444000E525006E016A0F0E012200C0E9FF01C0E0
:10445000EAFFEFCFDEFAE52BDECA73FFD6D0A4AABF
:10446000D4D071A205D00A01E38195EC36F0CDD00D
:1044700071A405D00A01E38395EC36F0C6D071A093
:104480003ED074CFDEFA800E0A016B110A01DE19EC
:1044900004E10A01E3897196B8D00A01DE5104E013
:1044A000DE510A016B1927E10A01E39971960A01AD
:1044B000DE5103E00A01E39702D00A01E387DECA76
:1044C000E7FAE0CAE8FA0A01E0050A01E96F600EBE
:1044D0000A01E825006E016A000E012200C0E9FF12
:1044E00001C0EAFFDECAEFFFE82BE851800A02E1D3
:1044F0000A01E86B8AD00A01E399718686D074CFED
:10450000DEFA0A01E3A919D0800E0A016B110A0133
:10451000DE1911E1899AA39A71980A01E25104E126
:10452000736A95EC36F007D000CF73FF010E0A01D5
:10453000E56FA3886AD0718668D00A01DE510A014E
:10454000E7270A01E8510A01E9191BE10A01E751CD
:104550000CE1E8CAE0FA0A01E3B712D0899AA39AFB
:104560007198736A95EC36F00BD00A01E385E3B7D6
:1045700007D0899AA39A7198010E736E95EC36F064
:1045800044D00A01E8510A01E11908E10A01E151A8
:104590000A01E01903E095EC36F037D0E0CA00F0EC
:1045A000016A004A012AE56A800EE56E0150E56E57
:1045B0000050E56E70EC2BF0006E040EE12600500A
:1045C0000A01DF6F0A01E8190CE11F0E0A01DE156E
:1045D0000A01E96FE92BE92B0A01E0510A01E927F9
:1045E000E99FE8CA00F00A01E82B016A600E002684
:1045F000000E012200C0E9FF01C0EAFFDECAEFFFA2
:10460000E851800A02E10A01E86BE4CF01F0E4CF4F
:1046100000F01200D9CFE5FFE1CFD9FF00C0E5FFE0
:1046200001C0E5FF02C0E5FF03C0E5FF04C0E5FFF0
:1046300005C0E5FF06C0E5FF07C0E5FF08C0E5FFD0
:1046400009C0E5FF0AC0E5FF0BC0E5FF0CC0E5FFB0
:104650000DC0E5FF0EC0E5FF0FC0E5FF020EDBCF8A
:1046600000F0030EDBCF01F0040EDBCF02F0050EED
:10467000DBCF03F0060EDBCF04F0070EDBCF05F037
:10468000080EDBCF06F0200E076E086A06C009F0A0
:104690000A6A0B6A0C6AE56AE56AE56A0950E56E22
:1046A0000350E56E0250E56E0150E56E0050E56E78
:1046B00010EC26F00D6E080EE126300E0D263A0E97
:1046C0000D5C05E30D500E6E270E0E240D6EFF0ED1
:1046D000072608225C0E07240E6E040E08200F6EBB
:1046E0000EC0E9FF0FC0EAFF0DC0EFFF0C50E56EF2
:1046F0000B50E56E0A50E56E0950E56E0350E56E0D
:104700000250E56E0150E56E0050E56E4AEC28F06F
:10471000006EF3CF01F0F4CF02F0E9CF03F0080E02
:10472000E1260050011002100310D8A4AFD707C033
:1047300000F008C001F004C002F005C003F000C0A2
:1047400004F001C005F0004A012A5C0E0426040EA4
:10475000052204C0E9FF05C0EAFFEFCF04F002C064
:10476000E9FF03C0EAFF04C0EFFF024A032A000E7C
:10477000015C02E1200E005CE2E302C0E9FF03C03D
:10478000EAFF000EEF6AE4CF0FF0E4CF0EF0E4CFC3
:104790000DF0E4CF0CF0E4CF0BF0E4CF0AF0E4CF5F
:1047A00009F0E4CF08F0E4CF07F0E4CF06F0E4CF5F
:1047B00005F0E4CF04F0E4CF03F0E4CF02F0E4CF5F
:1047C00001F0E4CF00F0E4CFD9FF1200D9CFE5FF2C
:1047D000E1CFD9FF00C0E5FF01C0E5FF02C0E5FF62
:1047E00003C0E5FF04C0E5FF05C0E5FF06C0E5FF27
:1047F00007C0E5FF08C0E5FF09C0E5FF0AC0E5FF07
:104800000BC0E5FF0CC0E5FF0DC0E5FF020EDBCFDE
:1048100000F0030EDBCF01F0040EDBCF02F0050E3B
:10482000DBCF03F0060EDBCF04F0070EDBCF05F085
:10483000080EDBCF06F0090EDBCF07F0D88003AE01
:10484000D890086A083608500FE0031C0C6E021C52
:104850000B6E011C0A6E001C096E092A0DE10A2A62
:104860000BE10B4A0C2A08D000C009F001C00AF085
:1048700002C00BF003C00CF0D88007AED890006ADD
:10488000003600500FE0071C0D6E061C036E051C61
:10489000026E041C016E012A0DE1022A0BE1034A9B
:1048A0000D2A08D004C001F005C002F006C003F0D4
:1048B00007C00DF00D50E56E0350E56E0250E56E39
:1048C0000150E56E0C50E56E0B50E56E0A50E56E3A
:1048D0000950E56E4AEC28F0016EF3CF02F0F4CFF8
:1048E00003F0E9CF04F0080EE1260050081A085042
:1048F00016E0041C076E031C066E021C056E011CEC
:10490000006E002A04E1052A02E1064A072A07C0D0
:10491000E9FF06C0F4FF05C0F3FF005007D004C054
:10492000E9FF03C0F4FF02C0F3FF0150E4CF0DF034
:10493000E4CF0CF0E4CF0BF0E4CF0AF0E4CF09F0C1
:10494000E4CF08F0E4CF07F0E4CF06F0E4CF05F0C1
:10495000E4CF04F0E4CF03F0E4CF02F0E4CF01F0C1
:10496000E4CF00F0E4CFD9FF1200D9CFE5FFE1CFCB
:10497000D9FF00C0E5FF01C0E5FF02C0E5FF03C0AD
:10498000E5FF04C0E5FF05C0E5FF06C0E5FF07C081
:10499000E5FF08C0E5FF020EDBCF00F0030EDBCF22
:1049A00001F0040EDBCF02F0040136513711D8B408
:1049B00046D00050020DF450046EF3CF03F0E80E21
:1049C0000326040E04220150FF08056EFF0E025458
:1049D000E56AE56AE56E0550E56EE56AE56A5D0E35
:1049E000E56EC00EE56EFEEC20F0056EF3CF06F02E
:1049F000F4CF07F0E9CF08F0080EE126E56AE56A92
:104A0000E568E5680850E56E0750E56E0650E56E0E
:104A10000550E56E4AEC28F0056EF3CF06F0080E5F
:104A2000E126280E0526230E0622000E03C0E9FF0C
:104A300004C0EAFF05C0EEFF06C0EFFF46D00050FD
:104A4000020DF450036EF3CF00F0E80E0026040EC2
:104A500003220150FF08016EFF0E0256E56AE56A67
:104A60000250E56E0150E56EE56AE56A790EE56E85
:104A7000180EE56EFEEC20F0016EF3CF02F0F4CFDD
:104A800004F0E9CF05F0080EE126E56AE56AE5687D
:104A9000E5680550E56E0450E56E0250E56E015084
:104AA000E56E4AEC28F0016EF3CF02F0080EE12625
:104AB000400E01261F0E0222000E00C0E9FF03C0B7
:104AC000EAFF01C0EEFF02C0EFFF04013585E4CF2D
:104AD00008F0E4CF07F0E4CF06F0E4CF05F0E4CF30
:104AE00004F0E4CF03F0E4CF02F0E4CF01F0E4CF30
:104AF00000F0E4CFD9FF1200D9CFE5FFE1CFD9FF15
:104B000000C0E5FF01C0E5FF02C0E5FF03C0E5FF0F
:104B100004C0E5FF05C0E5FF06C0E5FF07C0E5FFEF
:104B2000020EDBCF00F0030EDBCF01F0040EDBCF73
:104B300002F000500B0F036E000E0120046E000EF9
:104B40000220E56AF46AF66AF76A03C0E9FF04C066
:104B5000F3FF67EC36F00050070F036E000E0120E4
:104B6000046E000E0220056E0050030F066E000E4C
:104B70000120076E000E0220E56AF46AF66AF76A01
:104B800006C0E9FF07C0F3FF67EC36F0E56AF46A98
:104B9000F66AF76A03C0E9FF04C0F3FF055067EC4B
:104BA00036F00050010F036E000E0120046E000E5F
:104BB0000220056E0050020F066E000E0120076EE7
:104BC000000E0220E56A06C0E9FF07C0F3FFD4EC3F
:104BD00036F0E56A03C0E9FF04C0F3FF0550D4ECEA
:104BE00036F0E56A00C0E9FF01C0F3FF0250D4ECE3
:104BF00036F0E4CF07F0E4CF06F0E4CF05F0E4CFE1
:104C000004F0E4CF03F0E4CF02F0E4CF01F0E4CF0E
:104C100000F0E4CFD9FF120025642025640A0000CB
:104C2000D9CFE5FFE1CFD9FF00C0E5FF01C0E5FF27
:104C300002C0E5FF03C0E5FF04C0E5FF05C0E5FFD6
:104C400006C0E5FF07C0E5FF08C0E5FF09C0E5FFB6
:104C50000AC0E5FF020EDBCF00F0030EDBCF01F050
:104C6000040EDBCF02F0050EDBCF03F0060EDBCF28
:104C700004F0070EDBCF05F0080EDBCF06F0090EBF
:104C8000DBCF07F0086A096A0750800BE8440A6E18
:104C90000A501BE104500426053606360736075035
:104CA000035C08E10650025C05E10550015C02E18D
:104CB0000450005C06E2D890073206320532043216
:104CC00004D0092A09C008F0DFD70750035C08E1C7
:104CD0000650025C05E10550015C02E10450005CF5
:104CE00008E30450005E0550015A0650025A07506E
:104CF000035AD890073206320532043208C009F050
:104D000008060950E2E103C0E9FF02C0F4FF01C058
:104D1000F3FF0050E4CF0AF0E4CF09F0E4CF08F04D
:104D2000E4CF07F0E4CF06F0E4CF05F0E4CF04F0E1
:104D3000E4CF03F0E4CF02F0E4CF01F0E4CF00F0E1
:104D4000E4CFD9FF120000C0E5FF01C0E5FF03C0BA
:104D5000E5FF04C0E5FF05C0E5FF06C0E5FF07C0AD
:104D6000E5FF08C0E5FF09C0E5FF0AC0E5FF0BC08D
:104D7000E5FFCDCA00F0CECA01F00A01CD3F01D057
:104D8000CE2B0050E56E87EC36F0E652076E046AD3
:104D9000056A066ACDCA00F0CECA01F00A01CD3F0D
:104DA00001D0CE2B0050E56E87EC36F0E6520B6A50
:104DB0000A6E086A0850041205120A5006120B50B7
:104DC0000712CDCA00F0CECA01F00A01CD3F01D0D2
:104DD000CE2B0050E56E87EC36F0E652036E006A8B
:104DE00003C001F0E86A03BEFF0E086E096E0050B2
:104DF0000412015005120850061209500712CDCABC
:104E000000F0CECA01F00A01CD3F01D0CE2B0050F8
:104E1000E56E87EC36F0E652016A04120150051285
:104E20000612071207C0E9FF06C0F4FF05C0F3FF32
:104E30000450E4CF0BF0E4CF0AF0E4CF09F0E4CF64
:104E400008F0E4CF07F0E4CF06F0E4CF05F0E4CFBC
:104E500004F0E4CF03F0E4CF01F0E4CF00F012005F
:104E600000C0E5FF01C0E5FF02C0E5FF03C0E5FFAC
:104E700004C0E5FF0A01E1510A01E01901E15FD038
:104E8000E1CA00F0002A009E600E0024016E026A52
:104E9000000E022201C0E9FF02C0EAFFEFCFEBFAE9
:104EA0001F0E0A01EB17E1CAEAFAEB510A01EA27E1
:104EB000EA2BEA2BEA9FCCEC33F0016E015003E1C0
:104EC000016A012A01D0016ACCEC33F00A01EB6FD0
:104ED000800EEB15026E1F0EEB15036E03C004F07F
:104EE00003C0EBFA045003E1E0CAE1FA3BD0015001
:104EF0001BE0025022E0CCEC33F0006E0A01EB071D
:104F00000050420A1AE000504E0A03E12FEC30F044
:104F100014D00050460A03E1C9EC36F00ED0005020
:104F2000490A0BE1FF0009D0E1CAECFA025003E0A4
:104F300018EC32F002D0F6EC33F0EACAE1FA0A01DA
:104F400067510A01681906E00A01E25103E161ECC8
:104F500029F008D089BA06D00A01E25103E172B201
:104F600095EC36F0E4CF04F0E4CF03F0E4CF02F0A8
:104F7000E4CF01F0E4CF00F01200D9CFE5FFE1CF9C
:104F8000D9FF00C0E5FF01C0E5FF02C0E5FF03C097
:104F9000E5FF04C0E5FF05C0E5FF06C0E5FF07C06B
:104FA000E5FF08C0E5FF0BC0E5FF0CC0E5FF0DC045
:104FB000E5FF020EDBCF00F0030EDBCF01F0040EA5
:104FC000DBCF02F0050EDBCF03F0060EDBCF04F0E3
:104FD00003C0E5FF04C0F4FF00C0E9FF01C0F3FF18
:104FE0000250B1EC36F00050020F056E000E0120A9
:104FF000066E000E0220076EE86A04BEFF0E086E01
:1050000004500C6E0C2608340D6ED8900C360D36FC
:105010000344E844FC0B0B6E0350E844E844030BE4
:105020000C12E56A0BC0F4FF0CC0F6FF0DC0F7FFD1
:1050300005C0E9FF06C0F3FF075067EC36F0080E25
:105040000026000E01220222E56AF46AF66AF76A77
:1050500000C0E9FF01C0F3FF025067EC36F0E4CF77
:105060000DF0E4CF0CF0E4CF0BF0E4CF08F0E4CF88
:1050700007F0E4CF06F0E4CF05F0E4CF04F0E4CF8E
:1050800003F0E4CF02F0E4CF01F0E4CF00F0E4CF8E
:10509000D9FF1200D9CFE5FFE1CFD9FF00C0E5FF6E
:1050A00001C0E5FF02C0E5FF03C0E5FF04C0E5FF66
:1050B00005C0E5FF06C0E5FF07C0E5FF08C0E5FF46
:1050C00009C0E5FF0AC0E5FF0BC0E5FF0CC0E5FF26
:1050D0000DC0E5FF020EDBCF00F0030EDBCF01F0C9
:1050E000040EDBCF02F0050EDBCF03F0060EDBCFA4
:1050F00004F0070EDBCF05F0080EDBCF06F0090E3B
:10510000DBCF07F0086A096A0A6A0B6A200E0C6E88
:105110000350800BE8440D6E005000260136023625
:1051200003360850082609360A360B360D50D8A427
:10513000088007500B5C08E106500A5C05E1055049
:10514000095C02E10450085C09E30450085E055064
:10515000095A06500A5A07500B5A00800C2ED8D70D
:1051600003C0E9FF02C0F4FF01C0F3FF0050E4CF29
:105170000DF0E4CF0CF0E4CF0BF0E4CF0AF0E4CF75
:1051800009F0E4CF08F0E4CF07F0E4CF06F0E4CF75
:1051900005F0E4CF04F0E4CF03F0E4CF02F0E4CF75
:1051A00001F0E4CF00F0E4CFD9FF120000C0E5FF2A
:1051B00001C0E5FF02C0E5FF03C0E5FF04C0E5FF55
:1051C00005C0E5FF0401356B0F014E6B0F014E8BDF
:1051D0004E837F824E917E927D82006A016A026ACE
:1051E000E80E0124036E040E0220046E03C0E9FFE2
:1051F00004C0EAFFEE68EF688A0E0024036E046ABA
:10520000040E042203C0E9FF04C0EAFF00C0EFFF60
:10521000020E0126D8B0022A002A080E005CE0E344
:105220009384810E006E0F0E016E0F0E036E380E0A
:105230000026035001220F0E036E800E005E035005
:10524000015A810E026E0F0E036E0F0E056E380EA0
:105250000226055003220F0E056E800E025E0550D9
:10526000035A02C0E9FF03C0EAFFEFCF02F0029445
:1052700000C0E9FF01C0EAFF02C0EFFFF188F08E35
:10528000F092F0888B928B968B988B9A040189957B
:10529000899589958995949294969498949A040105
:1052A0009295929592959295E4CF05F0E4CF04F013
:1052B000E4CF03F0E4CF02F0E4CF01F0E4CF00F05C
:1052C000120000C0E5FF01C0E5FF02C0E5FF03C01A
:1052D000E5FF72A276D0D8EC34F0006E005005E104
:1052E0000A01686B0A01676B6CD068CA01F0005054
:1052F0000126D8EC34F0026E00060250230A1FE1AA
:10530000010E005CD8A05BD0D8EC34F0026E690AC4
:1053100003E11CEC33F053D00250720A03E195EC28
:1053200036F04DD00250730A01E049D0898A718667
:10533000A38AA398745074507198718840D0025019
:10534000430A05E00250420A01E039D001D0008E44
:1053500000C0E4FA00500F01006F010E0A01E56F72
:105360000A016851011814E0D8EC34F0026E0A0109
:10537000E427000E0A01E525006E036A0F0E0322E2
:1053800000C0E9FF03C0EAFF02C0EFFFE52BE8D74A
:10539000000E0A01E525006E026A0F0E02220A01C4
:1053A000E41D036E032A00C0E9FF02C0EAFF03C048
:1053B000EFFF0A01E52BE5CAE2FA0A01DC6B01C046
:1053C00068FAE4CF03F0E4CF02F0E4CF01F0E4CFD9
:1053D00000F01200D9CFE5FFE1CFD9FF00C0E5FF13
:1053E00001C0E5FF02C0E5FF03C0E5FF04C0E5FF23
:1053F00005C0E5FF06C0E5FF07C0E5FF020EDBCFF5
:1054000000F0030EDBCF01F0040EDBCF02F0050E3F
:10541000DBCF03F002C006F00650046E800A33E1D1
:1054200000C0E9FF01C0F3FF025032EC35F0056E19
:10543000F3CF06F0F4CF07F003C0E5FF05C0E9FFA6
:1054400006C0F3FF0750D4EC36F000C0E9FF01C0FE
:10545000F3FF025032EC35F0056EF3CF06F0F4CFD7
:1054600007F0052A02E3064A072A05C0E5FF06C041
:10547000F4FF07C0F6FF00C0E9FF01C0F3FF0250D0
:1054800078EC36F01DD004AA1BD0047A045004E155
:1054900003500AEC37F014D00450010A04E1035021
:1054A00002EC00F00DD004500F0A04E10350EBECC5
:1054B00032F006D004500E0A03E103501DEC37F021
:1054C000E4CF07F0E4CF06F0E4CF05F0E4CF04F03A
:1054D000E4CF03F0E4CF02F0E4CF01F0E4CF00F03A
:1054E000E4CFD9FF1200D9CFE5FFE1CFD9FF00C04B
:1054F000E5FF01C0E5FF02C0E5FF03C0E5FF04C012
:10550000E5FF05C0E5FF06C0E5FF07C0E5FF08C0F1
:10551000E5FF09C0E5FF0AC0E5FF0BC0E5FF0CC0D1
:10552000E5FF020EDBCF00F0030EDBCF01F0040E2F
:10553000DBCF02F0050EDBCF03F0060EDBCF04F06D
:10554000070EDBCF05F0080EDBCF06F0090EDBCF30
:1055500007F002500A6E0150096E0050086E06C036
:105560000BF007C00CF0FF0E062607220B500C10A4
:105570001AE003C0E9FF04C0F3FF055056EC36F013
:105580000B6E032A02E3044A052A0BC0E5FF08C09C
:10559000E9FF09C0F3FF0A50D4EC36F0082ADFE334
:1055A000094A0A2ADCD702C0F4FF01C0F3FF005009
:1055B000E4CF0CF0E4CF0BF0E4CF0AF0E4CF09F035
:1055C000E4CF08F0E4CF07F0E4CF06F0E4CF05F035
:1055D000E4CF04F0E4CF03F0E4CF02F0E4CF01F035
:1055E000E4CF00F0E4CFD9FF1200D9CFE5FFE1CF3F
:1055F000D9FF00C0E5FF01C0E5FF02C0E5FF03C021
:10560000E5FF04C0E5FF05C0E5FF06C0E5FF07C0F4
:10561000E5FF020EDBCF00F0030EDBCF01F0040E3E
:10562000DBCF02F0050EDBCF03F068CA69FA0A018E
:1056300067510A01695F690703C004F0056A030E38
:105640000426D8B0052A69CA06F0076A0750800FF9
:10565000F36E0550800FF35C02E10450065C02E239
:10566000E8682BD0020E035C02E2E86A26D003064B
:105670000350E56E2DEC31F0E652046A0350045CF1
:1056800014E204500024056EE86A0120066EE86A00
:10569000022005C0E9FF06C0F3FF56EC36F0042AED
:1056A000E56E2DEC31F0E652E9D768CA69FA0A01D5
:1056B00067510A01695F6907E86AE4CF07F0E4CF40
:1056C00006F0E4CF05F0E4CF04F0E4CF03F0E4CF3C
:1056D00002F0E4CF01F0E4CF00F0E4CFD9FF1200F4
:1056E000D9CFE5FFE1CFD9FF00C0E5FF01C0E5FF5D
:1056F00002C0E5FF03C0E5FF04C0E5FF05C0E5FF0C
:1057000006C0E5FF020EDBCF00F0030EDBCF01F099
:10571000040EDBCF02F0050EDBCF03F0D88001AE24
:10572000D890046A0436045007E0011C066E001C81
:10573000056E054A062A04D000C005F001C006F037
:10574000D88003AED89007E3031C016E021C006EE4
:10575000004A012A04D002C000F003C001F0015049
:10576000E56E0050E56E0650E56E0550E56E3AECCC
:105770002EF0006EF3CF01F0040EE12604500AE093
:10578000011C036E001C026E024A032A03C0F3FFD1
:10579000025003D001C0F3FF0050E4CF06F0E4CF85
:1057A00005F0E4CF04F0E4CF03F0E4CF02F0E4CF5F
:1057B00001F0E4CF00F0E4CFD9FF1200D9CFE5FF2C
:1057C000E1CFD9FF00C0E5FF01C0E5FF02C0E5FF62
:1057D00003C0E5FF04C0E5FF05C0E5FF020EDBCF17
:1057E00000F0030EDBCF01F0040EDBCF02F0050E5C
:1057F000DBCF03F0CDCA04F0CECA05F00A01CD3FDD
:1058000001D0CE2B0350E56E0450E56E46EC34F02B
:10581000E652E652CDCA04F0CECA05F00A01CD3FE9
:1058200001D0CE2B0250056EE56E0450E56E46ECBD
:1058300034F0E652E652CDCA04F0CECA05F00A01B1
:10584000CD3F01D0CE2B0150056EE56E0450E56EC4
:1058500046EC34F0E652E652CDCA04F0CECA05F06A
:105860000A01CD3F01D0CE2B0050E56E0450E56E0D
:1058700046EC34F0E652E652E4CF05F0E4CF04F013
:10588000E4CF03F0E4CF02F0E4CF01F0E4CF00F086
:10589000E4CFD9FF1200D9CFE5FFE1CFD9FF00C097
:1058A000E5FF01C0E5FF02C0E5FF03C0E5FF04C05E
:1058B000E5FF05C0E5FF06C0E5FF020EDBCF00F007
:1058C000030EDBCF01F0040EDBCF02F00A01DB5147
:1058D00019E1A3EC26F0036EF3CF04F0F4CF05F04A
:1058E000E9CF06F003C0E5FF04C0F4FF05C0F6FFF2
:1058F00006C0F7FF00C0E9FF01C0F3FF025067ECEC
:1059000036F01ED00A01DB51010A1AE100C0E9FF9E
:1059100001C0F3FF0250B8EC34F0006EF3CF01F099
:10592000F4CF02F0E9CF03F00350E56E0250E56ECC
:105930000150E56E0050E56EDEEC2BF0040EE12622
:10594000E4CF06F0E4CF05F0E4CF04F0E4CF03F0B9
:10595000E4CF02F0E4CF01F0E4CF00F0E4CFD9FFD0
:105960001200D9CFE5FFE1CFD9FF00C0E5FF01C0AC
:10597000E5FF02C0E5FF03C0E5FF04C0E5FF020E3E
:10598000DBCF00F0030EDBCF01F0040EDBCF02F023
:105990000050070F036E000E0120046E000E02205F
:1059A000E56E0450E56E0350E56EB1EC30F0030E89
:1059B000E1260050230F036E000E0120046E000E3E
:1059C0000220E56E0450E56E0350E56E97EC2EF074
:1059D000030EE1260050330F036E000E0120046E0B
:1059E000000E0220E56E0450E56E0350E56EDBEC20
:1059F0002DF0030EE126440E0026000E01220222A5
:105A00000250E56E0150E56E0050E56EDBEC2DF0C6
:105A1000030EE126E4CF04F0E4CF03F0E4CF02F07C
:105A2000E4CF01F0E4CF00F0E4CFD9FF1200D9CFEA
:105A3000E5FFE1CFD9FF00C0E5FF01C0E5FF02C0EF
:105A4000E5FF03C0E5FF04C0E5FF05C0E5FF06C0B4
:105A5000E5FF020EDBCF00F0030EDBCF01F0040EFA
:105A6000DBCF02F0050EDBCF03F0060EDBCF04F038
:105A7000070EDBCF05F0080EDBCF06F0D88003AEB3
:105A8000D89015E306500A0A12E104C0E9FF05C0E8
:105A9000EAFF2D0EEF6E044A052A031E021E011EA8
:105AA000006C05E1012A03E1022AD8B4032A06505A
:105AB000E56E0550E56E0450E56E0350E56E02504C
:105AC000E56E0150E56E0050E56E0AEC23F0070E1E
:105AD000E126E4CF06F0E4CF05F0E4CF04F0E4CF14
