:020000040000FA
:100000003DEF35F0C96E1200F4EF30F064EC1EF0F5
:1000100076EC19F0FDD71200B3EF33F0D9CFE5FF3E
:10002000E1CFD9FF00C0E5FF01C0E5FF02C0E5FF59
:1000300003C0E5FF04C0E5FF05C0E5FF06C0E5FF1E
:1000400007C0E5FF08C0E5FF09C0E5FF0AC0E5FFFE
:100050000BC0E5FF0CC0E5FF0DC0E5FF0EC0E5FFDE
:100060000FC0E5FF10C0E5FF11C0E5FF12C0E5FFBE
:1000700013C0E5FF14C0E5FF15C0E5FF16C0E5FF9E
:1000800017C0E5FF18C0E5FF19C0E5FF1AC0E5FF7E
:100090001BC0E5FF1CC0E5FF1DC0E5FF1EC0E5FF5E
:1000A0001FC0E5FF20C0E5FF21C0E5FF22C0E5FF3E
:1000B00023C0E5FF24C0E5FF25C0E5FF020EDBCF2E
:1000C00000F0030EDBCF01F0040EDBCF02F0025094
:1000D000086E0150076E0050066EE56A100EE56E60
:1000E0000850E56E0750E56E0650E56E800EE56E31
:1000F0000A0EE56E100EE56E89EC29F0080EE12679
:1001000018CA03F019CA04F01ACA05F01BCA06F08F
:1001100003C007F004C008F005C009F006C00AF0EB
:10012000D8800AAED8900AE30A1E091E081E076C82
:1001300005E1082A03E1092AD8B40A2A10CA0BF0FB
:1001400011CA0CF0E86A0A0111BFFF0E0D6E0E6EA7
:10015000D8901431106E13310F6ED89010320F32C8
:100160001551E840E840C00B10121541E8403F0B24
:10017000E8BAC009116E126A11BE12680F500B5C0A
:100180000F6E10500C58106E11500D58116E125009
:100190000E58126E800F810F08E1FF0E115C05E111
:1001A000FF0E105C02E1FE0E0F5CD8A04ED0125084
:1001B000800F800F08E1000E115C05E1000E105C5D
:1001C00002E1030E0F5CD8B040D00A340A30166E3C
:1001D0000930156E0830146E0730136E1ECA17F002
:1001E0001FCA18F0E86A0A011FBFFF0E196E800FC0
:1001F000F36E1650800FF35C08E11550195C05E1B1
:100200001450185C02E11350175C1FE30C50156E7C
:1002100015260D34166ED890153616360B44E84464
:10022000FC0B146E0B50E844E844030B15120A0152
:10023000126B1450136F1550146F1650156F186B06
:10024000196B1A6B1B6BB0EF04F00850076E095066
:10025000086ED89008320732D890083207320A5018
:10026000E840E840C00B08120A40E8403F0BE8BAFB
:10027000C0090A6A083408300A6E0730096EE86A55
:100280000ABEFF0E0B6E0C6E07C00DF008C00EF01C
:10029000E86A08BEFF0E136EE56E1350E56E0E5051
:1002A000E56E0D50E56E0C50E56E0B50E56E0A5094
:1002B000E56E0950E56E72EC1FF0096EF3CF0AF09F
:1002C000F4CF0BF0E9CF0CF0080EE1261ECA0DF0BA
:1002D0001FCA0EF0E86A0A011FBFFF0E136E146EEC
:1002E000E56E1350E56E0E50E56E0D50E56E0C5048
:1002F000E56E0B50E56E0A50E56E0950E56E5AEC5E
:1003000022F0096EF3CF0AF0080EE12616CA0BF0B0
:1003100017CA0CF0E86A0A0117BFFF0E156E0C50E1
:10032000196E192615341A6ED89019361A360B44E0
:10033000E844FC0B186E0B50E844E844030B191218
:10034000176AD88006AED890D8B064D109C00BF037
:100350000AC00CF0E86A0ABEFF0E156E800FF36E3D
:100360001250800FF35C08E11150155C05E110504C
:100370000C5C02E10F500B5CD8B024D10650800F0A
:10038000F36E1A50800FF35C08E11950055C05E12B
:100390001850045C02E11750035CD8B0ECD01CCAC2
:1003A0000BF01DCA0CF0E86A0A011DBFFF0E156EA6
:1003B000166E03500B2604500C22055015220650D1
:1003C00016220B500A01186F0C50196F15501A6F36
:1003D00016501B6F1ECA0BF01FCA0CF01CCA15F07A
:1003E0001DCA16F00C50800FF36E1650800FF35C90
:1003F00002E115500B5CD8B0A2D018CA1BF019CA84
:100400001CF01ACA1DF01BCA1EF0D8901D30206EB9
:100410001C301F6ED89020321F321E50E840E8403A
:10042000C00B20121E40E8403F0BE8BAC009226A08
:100430001F50076E2050086E08340830206E0730B9
:100440001F6EE86A20BEFF0E216E226E07C023F0E9
:1004500008C024F0E86A08BEFF0E256EE56E255040
:10046000E56E2450E56E2350E56E2250E56E215076
:10047000E56E2050E56E1F50E56E72EC1FF01F6EAA
:10048000F3CF20F0F4CF21F0E9CF22F0080EE126DF
:100490000BC023F00CC024F0E86A0CBEFF0E256EE2
:1004A000E56E2550E56E2450E56E2350E56E225032
:1004B000E56E2150E56E2050E56E1F50E56E5AEC5A
:1004C00022F01F6EF3CF20F0080EE1261F50096EB8
:1004D00020500A6E09C01FF00AC020F0E86A0ABE68
:1004E000FF0E216E226E1250800FF36E2250800F8D
:1004F000F35C08E12150115C05E12050105C02E141
:100500001F500F5C1CE20B50155C0B6E0C50165804
:100510000C6EE86A0CBEFF0E156E166E0B501B5E5D
:100520000C501C5A15501D5A16501E5A1B500A01C9
:10053000186F1C50196F1D501A6F1E501B6F1A50E8
:10054000800FF36E0A011B51800FF35C08E11A5112
:10055000195C05E11951185C02E11851175CD8B01B
:10056000D8D117500A01186F1850196F19501A6F07
:100570001A501B6FCED11A50800FF36E0650800FA9
:10058000F35C08E10550195C05E10450185C02E1D8
:100590000350175CD8B0BDD10D50035C0B6E0E50EC
:1005A00004580C6E13500558156E14500658166EEC
:1005B0000B500A01186F0C50196F15501A6F165016
:1005C0001B6FA7D11CCA0BF01DCA0CF0E86A0A0108
:1005D0001DBFFF0E156E166E0D500B260E500C2211
:1005E00013501522145016220B50035C0B6E0C5046
:1005F00004580C6E15500558156E16500658166E98
:100600000B500A01186F0C50196F15501A6F1650C5
:100610001B6F7FD10A1E096CD8B40A2A09C00BF0DF
:100620000AC00CF0E86A0ABEFF0E156E166E125074
:10063000800FF36E1650800FF35C08E11550115CCB
:1006400005E10C50105C02E10B500F5CD8B03ED1BC
:100650001A1C166E191C156E181C0C6E171C0B6ECE
:100660000B2A04E10C2A02E1154A162A1650800FC3
:10067000F36E0650800FF35C08E10550155C05E150
:1006800004500C5C02E103500B5CD8B0F8D01CCADB
:1006900017F01DCA18F0E86A0A011DBFFF0E196E97
:1006A0001A6E1750035C176E18500458186E1950C4
:1006B0000558196E1A5006581A6E17500A01186F0D
:1006C0001850196F19501A6F1A501B6F1ECA17F065
:1006D0001FCA18F01CCA19F01DCA1AF01850800F52
:1006E000F36E1A50800FF35C02E11950175CD8B01A
:1006F000AAD018CA1BF019CA1CF01ACA1DF01BCACE
:100700001EF0D8901D30206E1C301F6ED890203205
:100710001F321E50E840E840C00B20121E40E84047
:100720003F0BE8BAC009216E226A21BE2268221E50
:10073000211E201E1F6C05E1202A03E1212AD8B4C6
:10074000222A1F50076E2050086E08340830206E91
:1007500007301F6EE86A20BEFF0E216E226EE86A27
:1007600008BEFF0E236EE56E2350E56E0850E56E61
:100770000750E56E2250E56E2150E56E2050E56E83
:100780001F50E56E72EC1FF0076EF3CF08F0F4CF48
:100790001FF0E9CF20F0080EE12617C021F018C0A5
:1007A00022F0E86A18BEFF0E236EE56E2350E56E58
:1007B0002250E56E2150E56E2050E56E1F50E56E2B
:1007C0000850E56E0750E56E5AEC22F0076EF3CF45
:1007D00008F0080EE126081E076C02E1082A00E175
:1007E0000750096E08500A6EE86A0ABEFF0E076ECF
:1007F000800FF36E1250800FF35C08E11150075C1C
:1008000005E110500A5C02E10F50095C1CE2175030
:10081000195C176E18501A58186EE86A18BEFF0E49
:10082000076E086E17501B2618501C2207501D22F9
:1008300008501E221B500A01186F1C50196F1D50C2
:100840001A6F1E501B6F0A011B51800FF36E16505A
:10085000800FF35C08E115501A5D05E10C50195D3D
:1008600002E10B50185DD8B054D00B500A01186F3C
:100870000C50196F15501A6F16501B6F4AD0065046
:10088000800FF36E1650800FF35C08E11550055C85
:1008900005E10C50045C02E10B50035CD8B039D088
:1008A0000D500324076E0E500420086E13500520CF
:1008B000096E145006200A6E07500A01186F08507E
:1008C000196F09501A6F0A501B6F23D01CCA07F00A
:1008D0001DCA08F0E86A0A011DBFFF0E096E0A6E04
:1008E00007500D2608500E22095013220A501422D8
:1008F0000D5003260E5004221350052214500622D8
:1009000003500A01186F0450196F05501A6F0650F2
:100910001B6FD8900A011A31046E1931036ED890FA
:10092000043203321B51E840E840C00B04121B4163
:10093000E8403F0BE8BAC009056E066A05BE0668C6
:100940001251032613510422145105221551062277
:100950000350126F0450136F0550146F0650156F3B
:10096000E56A100EE56E800EE56E0A0EE56E100E5D
:10097000E56E0250E56E0150E56E0050E56E89ECC3
:1009800029F0080EE126E4CF25F0E4CF24F0E4CFEF
:1009900023F0E4CF22F0E4CF21F0E4CF20F0E4CF45
:1009A0001FF0E4CF1EF0E4CF1DF0E4CF1CF0E4CF45
:1009B0001BF0E4CF1AF0E4CF19F0E4CF18F0E4CF45
:1009C00017F0E4CF16F0E4CF15F0E4CF14F0E4CF45
:1009D00013F0E4CF12F0E4CF11F0E4CF10F0E4CF45
:1009E0000FF0E4CF0EF0E4CF0DF0E4CF0CF0E4CF45
:1009F0000BF0E4CF0AF0E4CF09F0E4CF08F0E4CF45
:100A000007F0E4CF06F0E4CF05F0E4CF04F0E4CF44
:100A100003F0E4CF02F0E4CF01F0E4CF00F0E4CF44
:100A2000D9FF1200D9CFE5FFE1CFD9FF00C0E5FF24
:100A300001C0E5FF02C0E5FF03C0E5FF04C0E5FF1C
:100A400005C0E5FF06C0E5FF07C0E5FF08C0E5FFFC
:100A500009C0E5FF0AC0E5FF0BC0E5FF0CC0E5FFDC
:100A60000DC0E5FF0EC0E5FF0FC0E5FF10C0E5FFBC
:100A700011C0E5FF12C0E5FF13C0E5FF14C0E5FF9C
:100A800015C0E5FF16C0E5FF17C0E5FF18C0E5FF7C
:100A900019C0E5FF1AC0E5FF1BC0E5FF1CC0E5FF5C
:100AA0001DC0E5FF1EC0E5FF020EDBCF00F0030E08
:100AB000DBCF01F0040EDBCF02F0050EDBCF03F03D
:100AC000060EDBCF04F0070EDBCF05F0080EDBCF00
:100AD00006F0090EDBCF07F00A0EDBCF08F0096A3B
:100AE0000A6A02C00DF00D50800A0DE102500A01A1
:100AF0007E6F01507D6F00507C6F0A0E016E7C0E80
:100B0000006E800E026E03C0E9FF04C0F3FF0550C3
:100B100076EC35F00B6E0B50D8B400EF09F00B50AB
:100B2000250A02E0E7EF08F00C6A0D6A0E6A0F6A08
:100B3000106A0A0E116E126A136A146A200E156E7C
:100B40001668176A2B0E186E032A02E3044A052A58
:100B500003C0E9FF04C0F3FF055076EC35F0196ED1
:100B6000250A13E11950E56E0250E56E0150E56E5D
:100B70000050E56E00EC29F0040EE126094A0A2A2D
:100B8000032A02E3044A052ABED71950300A06E1B7
:100B9000300E156E032A02E3044A052A03C0E9FF5A
:100BA00004C0F3FF055076EC35F02D0A06E1010E86
:100BB000146E032A02E3044A052A03C0E9FF04C0B5
:100BC000F3FF055076EC35F0200A08E1010E176EB0
:100BD000200E186E032A02E3044A052A03C0E9FF27
:100BE00004C0F3FF055076EC35F02B0A06E1010E48
:100BF000176E032A02E3044A052A03C0E9FF04C072
:100C0000F3FF055076EC35F0196E800F4F0F2DE392
:100C10001950800F460F29E203C019F004C01AF0E2
:100C200005C01BF019C0E9FF1AC0F3FF1B5076EC9A
:100C300035F01C6E800F500F12E31C50800F460FD2
:100C40000EE213500A0DF3CF1DF01D501C26D00EDE
:100C50001C24136E192A02E31A4A1B2AE3D719C06F
:100C600003F01AC004F01BC005F003C0E9FF04C084
:100C7000F3FF055076EC35F02E0A2EE1032A02E34D
:100C8000044A052A166A03C019F004C01AF005C008
:100C90001BF019C0E9FF1AC0F3FF1B5076EC35F0CA
:100CA0001C6E800F500F12E31C50800F460F0EE297
:100CB00016500A0DF3CF1DF01D501C26D00E1C241B
:100CC000166E192A02E31A4A1B2AE3D719C003F049
:100CD0001AC004F01BC005F003C0E9FF04C0F3FF15
:100CE000055076EC35F0196E6C0A07E1010E0C6EBA
:100CF000032A02E3044A052A09D01950680A06E1CA
:100D0000010E0E6E032A02E3044A052A03C0E9FF1E
:100D100004C0F3FF055076EC35F0750A06E1010ECC
:100D2000106E032A02E3044A052A03C0E9FF04C047
:100D3000F3FF055076EC35F0196E730A05E1010EEC
:100D40000D6E200E156E3FD01950780A03E1100E7B
:100D5000116E39D01950580A05E1100E116E010EAE
:100D6000126E31D01950630A02E1116A2CD0195069
:100D70006F0A03E1080E116E26D01950660A03E1CE
:100D8000010E0F6E20D01950640A1DE01950690A37
:100D90001AE0105005E0FF0E03260422052213D0AE
:100DA0001950E56E0250E56E0150E56E0050E56E9B
:100DB00000EC29F0040EE126094A0A2A032A02E37C
:100DC000044A052AA0D60D5021E00650030F0D6EEF
:100DD000000E0720196E000E08201A6E0DC006F0D6
:100DE00019C007F01AC008F0FD0E0D26FF0E1922DB
:100DF0001A220DC0E9FF19C0F3FF1A5052EC34F06B
:100E00000D6EF3CF19F0F4CF1AF032D10F50D8B4E1
:100E10003ED00650040F0F6E000E07201B6E000E12
:100E200008201C6E0FC006F01BC007F01CC008F0A5
:100E3000FC0E0F26FF0E1B221C220FC0E9FF1BC059
:100E4000F3FF1C50D8EC33F00F6EF3CF1BF0F4CF50
:100E50001CF0E9CF1DF0040E196E000E0D6E800E11
:100E60001A6E1650E56E240EE56E040EE56E000E49
:100E7000E56E1D50E56E1C50E56E1B50E56E0F5083
:100E8000E56E52EC1DF0080EE1261668F1D01668EA
:100E90000C5023E00650040F0C6E000E07200F6E5E
:100EA000000E08201B6E0CC006F00FC007F01BC020
:100EB00008F0FC0E0C26FF0E0F221B220CC0E9FFCF
:100EC0000FC0F3FF1B50D8EC33F00C6EF3CF0FF0D4
:100ED000F4CF1BF0E9CF1CF06AD00E5032E0065080
:100EE000020F0E6E000E07201D6E000E08201E6EF3
:100EF0000EC006F01DC007F01EC008F0FE0E0E2644
:100F0000FF0E1D221E220EC0E9FF1DC0F3FF1E5062
:100F100011EC35F00E6E0EC00CF0E86A0EBEFF0E3E
:100F20000F6E1B6E1C6E11500A0A03E11050D8B4EC
:100F30003ED00C500E6E0EC00CF00F6A1B6A1C6A7D
:100F400036D00650020F0E6E000E07201D6E000EEA
:100F500008201E6E0EC006F01DC007F01EC008F06F
:100F6000FE0E0E26FF0E1D221E220EC0E9FF1DC022
:100F7000F3FF1E5011EC35F00E6EF3CF1DF00EC0D6
:100F80000CF01DC00FF0E86A1DBEFF0E1B6E1C6E3C
:100F900011500A0A02E110500AE00C500E6E0F5078
:100FA0001D6E0EC00CF01DC00FF01B6A1C6A040EF3
:100FB000196E010E0D6E800E1A6E1150D8B440D00D
:100FC000105013E01150E56E040EE56E010EE56E53
:100FD0001C50E56E1B50E56E0F50E56E0C50E56E33
:100FE0007EEC21F0070EE12612D01150E56E040EC2
:100FF000E56E010EE56E1C50E56E1B50E56E0F5060
:10100000E56E0C50E56E2DEC2CF0070EE126175026
:101010002FE00DC0E9FF19C0F3FF1A5076EC35F050
:101020002D0A26E0FF0E0D2619221A2218C0E5FF10
:101030000DC0E9FF19C0F3FF1A50F4EC35F018D0D9
:101040000CC0E5FF0DC0E9FF19C0F3FF1A50F4EC26
:1010500035F00D50010F0C6E000E19200E6E000EB3
:101060001A20E56A0CC0E9FF0EC0F3FFF4EC35F07E
:101070000DC00CF019C00EF01AC00FF013C010F024
:10108000105010E00CC0E9FF0EC0F3FF0F5076ECDB
:1010900035F0176E175006E00C2A02E30E4A0F2AAD
:1010A0001006EED710C013F014501EE109C00CF06A
:1010B0000AC00EF010C00FF00F5010E01550E56E92
:1010C0000250E56E0150E56E0050E56E00EC29F02F
:1010D000040EE1260C4A0E2A0F06EED70CC009F0CA
:1010E0000EC00AF00FC013F016C00CF00DC00DF0CA
:1010F00019C00EF01AC00FF009C010F00AC015F0A8
:101100000DC0E9FF0EC0F3FF0F5076EC35F0166E00
:101110001650D8B43ED00CC016F0176A161E171E13
:101120001650171005E00CC016F00C06165031E0F2
:101130000DC0E9FF0EC0F3FF0F5076EC35F0116ED5
:10114000125010E01150E56ECEEC34F0166EE652FF
:10115000165004E01150166E169A02D011C016F007
:1011600016C011F01150E56E0250E56E0150E56EAB
:101170000050E56E00EC29F0040EE1260D2A02E392
:101180000E4A0F2A104A152A1350D8B4B9D713069D
:10119000B7D710C009F015C00AF014502BE010C0EA
:1011A0000CF015C00DF013C00EF00E501FE0200E15
:1011B000E56E0250E56E0150E56E0050E56E00EC04
:1011C00029F0040EE1260C4A0D2A0E06EED70B502C
:1011D000E56E0250E56E0150E56E0050E56E00ECE4
:1011E00029F0040EE126094A0A2A04D00CC009F0AD
:1011F0000DC00AF0032A02E3044A052A83EF05F032
:101200000AC0F3FF0950E4CF1EF0E4CF1DF0E4CF95
:101210001CF0E4CF1BF0E4CF1AF0E4CF19F0E4CFD8
:1012200018F0E4CF17F0E4CF16F0E4CF15F0E4CFD8
:1012300014F0E4CF13F0E4CF12F0E4CF11F0E4CFD8
:1012400010F0E4CF0FF0E4CF0EF0E4CF0DF0E4CFD8
:101250000CF0E4CF0BF0E4CF0AF0E4CF09F0E4CFD8
:1012600008F0E4CF07F0E4CF06F0E4CF05F0E4CFD8
:1012700004F0E4CF03F0E4CF02F0E4CF01F0E4CFD8
:1012800000F0E4CFD9FF1200D9CFE5FFE1CFD9FFBD
:1012900000C0E5FF01C0E5FF02C0E5FF03C0E5FFB8
:1012A00004C0E5FF05C0E5FF06C0E5FF07C0E5FF98
:1012B00008C0E5FF09C0E5FF0AC0E5FF0BC0E5FF78
:1012C0000CC0E5FF0DC0E5FF020EDBCF00F0030E02
:1012D000DBCF01F0040EDBCF02F00050090F066EE9
:1012E000000E0120076E000E0220086E0B6E0750E4
:1012F0000A6E0650096EE56A0D0EE56E0B50E56E3E
:101300000A50E56E0950E56E800EE56E0A0EE56E38
:10131000200EE56E89EC29F0080EE12600C009F0E8
:1013200001C00AF002C00BF0E56AE56E0B50E56EF5
:101330000A50E56E0950E56E800EE56E040EE56E0E
:101340008A0EE56E89EC29F0080EE1268AC403F0C6
:101350000350010A04E00350030A01E01FD10A010F
:1013600028510A01355D036E0A0129510A013659D7
:10137000046E0A012A510A0137590A012B510A0148
:10138000385903500A01876F0450886F0A0135519C
:101390000A01286F0A0136510A01296F0A013751E3
:1013A0000A012A6F0A0138510A012B6F0A0187517D
:1013B0008811D8A47FD0EBEC32F0036EF3CF04F0A9
:1013C000F4CF05F0E9CF09F00A012D510A6E2E5134
:1013D0000B6E2F510C6E30510D6E0A50035E0B5088
:1013E000045A0C50055A0D50095A03500A01466F11
:1013F0000450476F0550486F7F0E0914496F0A016A
:101400002CB125D00A0147354931046E4831036EAD
:10141000043404320332000E04BEFF0E096E056E62
:101420008FC40AF00B6A0C6A0D6A0D50800FF36EC0
:101430000950800FF35C08E105500C5C05E1045095
:101440000B5C02E103500A5C02E20A012C810A01F2
:101450002CB14AD024CA03F025CA04F026CA05F0EC
:1014600027CA09F00A014951800FF36E0950800F15
:10147000F35C08E10550485D05E10450475D02E179
:101480000350465D08E203C046FA04C047FA05C0AF
:1014900048FA09C049FA0A0139A303D0010E036EC4
:1014A00001D0036803C087FA0A01886B03AE01D03C
:1014B00088691AD00A012C9131CA46FA32CA47FA11
:1014C00033CA48FA34CA49FA0A0146510A01246F5C
:1014D0000A0147510A01256F0A0148510A01266F86
:1014E0000A0149510A01276F0A014951800F800FF3
:1014F00008E1000E485D05E1000E475D02E1010EC6
:10150000465D06E20A014A6B4B6B4C6B4D6B46D055
:101510000A014651036E4751046E4851056E495108
:10152000E56E0550E56E0450E56E0350E56E010E64
:10153000E56E000EE56AE56AE56A60EC27F0036E89
:10154000F3CF04F0F4CF05F0E9CF09F0080EE1265F
:1015500087CA0AF088CA0BF0E86A0A0188BFFF0E42
:101560000C6E0D6E0950E56E0550E56E0450E56E8B
:101570000350E56E0D50E56E0C50E56E0B50E56EB8
:101580000A50E56E72EC1FF00A014A6FF3CF4BFA76
:10159000F4CF4CFAE9CF4DFA080EE126020E040111
:1015A0008A5DD8A045D10A0139A142D10050230F4C
:1015B000036E000E0120046E000E0220E56E045042
:1015C000E56E0350E56E0EEC00F0030EE1260050D0
:1015D000230F036E000E0120046E000E0220056E24
:1015E000020E0326000E0422052203C0E9FF04C0F8
:1015F000F3FF0550D8EC33F0F3CF04F0F4CF05F04F
:10160000E9CF09F00450036E0550046ED8900432FF
:101610000332D890043203320950E840E840C00B4E
:1016200004120940E8403F0BE8BAC009056E096A98
:1016300005BE09680A013551035C0A014E6F0A01B3
:10164000365104580A014F6F0A01375105580A01F3
:10165000506F0A01385109580A01516FD88051AFB3
:10166000D89022E304018C1D046E8B1D036E034A87
:10167000042AE86A04BEFF0E056E096E0A01515184
:10168000800FF36E0950800FF35C08E10550505D48
:1016900005E104504F5D02E103504E5D05E30A0190
:1016A0004E6B4F6B506B516B0A015151800F800F85
:1016B00008E1000E505D05E1000E4F5D02E1010EF4
:1016C0004E5D1EE38BC403F08CC404F0E86A040191
:1016D0008CBFFF0E056E800FF36E0A015151800F13
:1016E000F35C08E15051055C05E14F51045C02E1F7
:1016F0004E51035C05E30A014E6B4F6B506B516B0F
:101700000401905109E0E86CD8900A014E374F3738
:1017100050375137010FF9E30A015151800F800F03
:1017200008E1000E505D05E1800E4F5D02E1000E04
:101730004E5D07E30A014E697F0E4F6F506B516B90
:1017400014D00A015151800F810F08E1FF0E505D46
:1017500005E1800E4F5D02E1000E4E5D06E20A01DA
:101760004E6B800E4F6F506951690050330F036EFE
:10177000000E0120046E000E0220056E0A014E517B
:10178000096E4F51E56E0950E56E0550E56E045047
:10179000E56E0350E56E57EC10F0050EE1260401EE
:1017A0008A51030A23E10050330F036E000E01201B
:1017B000046E000E0220056E0B0E0326000E04229E
:1017C000052203C0E9FF04C0F3FF0550D8EC33F055
:1017D000F3CF04F0F4CF05F00450036E0550046E0F
:1017E00003500A01206F0450216F22D00050330FA4
:1017F000036E000E0120046E000E0220056E0B0E1B
:101800000326000E0422052203C0E9FF04C0F3FFF3
:101810000550D8EC33F0F3CF04F0F4CF05F00450CA
:10182000036E0550046E03500A01226F0450236FAB
:101830008AC403F00350010A04E00350030A01E0E4
:101840007DD020CA03F021CA04F0E86A0A0121BF52
:10185000FF0E056E096E0A014A51035C0A014E6FC4
:101860000A014B5104580A014F6F0A014C510558A7
:101870000A01506F0A014D5109580A01516F800F3A
:10188000800F08E1000E505D05E1800E4F5D02E122
:10189000000E4E5D07E30A014E697F0E4F6F506BDD
:1018A000516B14D00A015151800F810F08E1FF0ED6
:1018B000505D05E1800E4F5D02E1000E4E5D06E2D7
:1018C0000A014E6B800E4F6F506951690050440FF2
:1018D000036E000E0120046E000E0220056E0A0148
:1018E0004E51096E4F51E56E0950E56E0550E56E9B
:1018F0000450E56E0350E56E57EC10F0050EE1263E
:10190000440E0026000E012202220B0E0026000EBD
:101910000122022200C0E9FF01C0F3FF0250D8EC0F
:1019200033F0F3CF01F0F4CF02F00150006E02501B
:10193000016E00500A01226F0150236F0850086E9B
:10194000E56A0D0EE56E800EE56E0A0EE56E200E60
:10195000E56E0850E56E0750E56E0650E56E89ECC1
:1019600029F0080EE126E4CF0DF0E4CF0CF0E4CF2F
:101970000BF0E4CF0AF0E4CF09F0E4CF08F0E4CFB5
:1019800007F0E4CF06F0E4CF05F0E4CF04F0E4CFB5
:1019900003F0E4CF02F0E4CF01F0E4CF00F0E4CFB5
:1019A000D9FF120025642025640A000005C0E5FF68
:1019B00006C0E5FF07C0E5FF08C0E5FF09C0E5FF79
:1019C0000AC0E5FF0BC0E5FF0CC0E5FF0DC0E5FF59
:1019D0000EC0E5FF0FC0E5FF10C0E5FF11C0E5FF39
:1019E00012C0E5FF13C0E5FF14C0E5FF15C0E5FF19
:1019F00016C0E5FF17C0E5FF18C0E5FF19C0E5FFF9
:101A00001AC0E5FF1BC0E5FF1CC0E5FF1DC0E5FFD8
:101A1000000E00B0050F066AF60F02E3062AFCD797
:101A20000A0F056E042E03D0FB0F01E3062A0650B1
:101A300000B0020F00B2050F076AF60F02E3072A93
:101A4000FCD70A0F066E042E03D0FB0F01E3072A12
:101A5000075000B0060F00B2020F00B4050F086A6D
:101A6000F60F02E3082AFCD70A0F076E042E03D0F4
:101A7000FB0F01E3082A085000B2010F00B4020F67
:101A800000B6050F096AF60F02E3092AFCD70A0F10
:101A9000086E042E03D0FB0F01E3092A095000B0A1
:101AA000090F00B2080F00B4060F00B6020F00B80D
:101AB000050F0A6AF60F02E30A2AFCD70A0F096E1D
:101AC000042E03D0FB0F01E30A2A0A5000B0030FD3
:101AD00000B2070F00B4050F00B6010F00B8020FE7
:101AE00000BA050F0B6AF60F02E30B2AFCD70A0FA8
:101AF0000A6E042E03D0FB0F01E30B2A0B5000B03B
:101B0000050F00B4010F00B6030F00B8060F00BAAE
:101B1000020F00BC050F0C6AF60F02E30C2AFCD77B
:101B20000A0F0B6E042E03D0FB0F01E30C2A0C509E
:101B300000B0070F00B2050F00BA010F00BC020F82
:101B400000BE050F0D6AF60F02E30D2AFCD70A0F3F
:101B50000C6E042E03D0FB0F01E30D2A0D5000B0D4
:101B6000070F00B2050F00B4010F00B6020F00B856
:101B7000040F00BA080F00BC060F00BE020F01B030
:101B8000050F0E6AF60F02E30E2AFCD70A0F0D6E40
:101B9000042E03D0FB0F01E30E2A0E5000B0040FF9
:101BA00000B2090F00B4090F00B6080F00B8060F05
:101BB00000BA020F00BC050F00BE010F01B0020FFA
:101BC00001B2050F0F6AF60F02E30F2AFCD70A0FC6
:101BD0000E6E042E03D0FB0F01E30F2A0F5000B04E
:101BE000040F00B2080F00B4070F00B6050F00B8CD
:101BF000010F00BA030F00BC060F00BE030F01B0B7
:101C0000060F01B2020F01B4050F106AF60F02E3CE
:101C1000102AFCD70A0F0F6E042E03D0FB0F01E32E
:101C2000102A105000B0060F00B2020F00B4050FCA
:101C300000B6010F00B8030F00BA060F00BC020F78
:101C400000BE050F01B2010F01B4020F01B6050F6E
:101C5000116AF60F02E3112AFCD70A0F106E042E48
:101C600003D0FB0F01E3112A115000B0040F00B2A2
:101C7000090F00B4080F00B6070F00B8040F00BA30
:101C8000080F00BC070F00BE040F01B0090F01B21E
:101C9000080F01B4060F01B6020F01B8050F126A52
:101CA000F60F02E3122AFCD70A0F116E042E03D09E
:101CB000FB0F01E3122A125000B4010F00B6030F0C
:101CC00000B8070F00BA040F00BC090F00BE090FCF
:101CD00001B0080F01B2070F01B4050F01B6010FE3
:101CE00001B8020F01BA050F136AF60F02E3132AB7
:101CF000FCD70A0F126E042E03D0FB0F01E3132A48
:101D0000135000B0060F00B2020F00B4040F00B66B
:101D1000080F00B8060F00BA030F00BC060F00BE84
:101D2000030F01B0070F01B2050F01B4010F01B697
:101D3000030F01B8060F01BA020F01BC050F146AA8
:101D4000F60F02E3142AFCD70A0F136E042E03D0F9
:101D5000FB0F01E3142A145000B0090F00B2090F61
:101D600000B4080F00B6060F00B8030F00BA070F43
:101D700000BC040F00BE090F01B0080F01B2070F2D
:101D800001B4050F01BA010F01BC020F01BE050F1E
:101D9000156AF60F02E3152AFCD70A0F146E042EFB
:101DA00003D0FB0F01E3152A155000B0050F00B258
:101DB000010F00B4030F00B6070F00B8050F00BCF9
:101DC000010F00BE020F01B0050F01B2010F01B4F7
:101DD000030F01B6070F01B8040F01BA080F01BCC9
:101DE000060F01BE020F02B0050F166AF60F02E3DE
:101DF000162AFCD70A0F156E042E03D0FB0F01E341
:101E0000162A165000B2010F00B4020F00B6040FDC
:101E100000B8090F00BA090F00BC080F00BE060F7A
:101E200001B0020F01B2050F01B8010F01BA020F94
:101E300001BC050F01BE010F02B0020F02B2050F77
:101E4000176AF60F02E3172AFCD70A0F166E042E44
:101E500003D0FB0F01E3172A175000BA010F00BC93
:101E6000030F00BE070F01B0050F01B4010F01B64B
:101E7000020F01B8040F01BA080F01BC060F01BE22
:101E8000030F02B0060F02B2020F02B4050F186A68
:101E9000F60F02E3182AFCD70A0F176E042E03D0A0
:101EA000FB0F01E3182A185001B0010F01B2030F14
:101EB00001B4060F01B6020F01B8040F01BA080FF2
:101EC00001BC070F01BE050F02B2010F02B4020FE1
:101ED00002B6050F196AF60F02E3192AFCD70A0F9A
:101EE000186E042E03D0FB0F01E3192A195001B616
:101EF000010F01B8020F01BA040F01BC090F01BEA6
:101F0000090F02B0090F02B2080F02B4060F02B6A1
:101F1000020F02B8050F1A6AF60F02E31A2AFCD75D
:101F20000A0F196E042E03D0FB0F01E31A2A1A5070
:101F300001BE010F02B0030F02B2070F02B4050F7A
:101F400002B6010F02B8020F02BA050F1B6AF60FA4
:101F500002E31B2AFCD70A0F1A6E042E03D0FB0FD4
:101F600001E31B2A1B5002B4010F02B6030F02B893
:101F7000060F02BA020F02BC050F1C6AF60F02E33D
:101F80001C2AFCD70A0F1B6E042E03D0FB0F01E3A3
:101F90001C2A1C5002BA010F02BC020F02BE050F20
:101FA0001D6AF60F02E31D2AFCD70A0F1C6E042ED1
:101FB00003D0FB0F01E31D2A300FEE6E1B50300FD4
:101FC000EE6E1A50300FEE6E1950300FEE6E185044
:101FD000300FEE6E1750300FEE6E1650300FEE6E63
:101FE0001550300FEE6E1450300FEE6E1350300F50
:101FF000EE6E1250300FEE6E1150300FEE6E10502C
:10200000300FEE6E0F50300FEE6E0E50300FEE6E42
:102010000D50300FEE6E0C50300FEE6E0B50300F37
:10202000EE6E0A50300FEE6E0950300FEE6E085013
:10203000300FEE6E0750300FEE6E0650300FEE6E22
:102040000550300FEE6E170EE4CF1DF0E4CF1CF0FC
:10205000E4CF1BF0E4CF1AF0E4CF19F0E4CF18F08E
:10206000E4CF17F0E4CF16F0E4CF15F0E4CF14F08E
:10207000E4CF13F0E4CF12F0E4CF11F0E4CF10F08E
:10208000E4CF0FF0E4CF0EF0E4CF0DF0E4CF0CF08E
:10209000E4CF0BF0E4CF0AF0E4CF09F0E4CF08F08E
:1020A000E4CF07F0E4CF06F0E4CF05F01200D9CF7B
:1020B000E5FFE1CFD9FF00C0E5FF01C0E5FF02C0A9
:1020C000E5FF03C0E5FF04C0E5FF05C0E5FF06C06E
:1020D000E5FF07C0E5FF08C0E5FF09C0E5FF0AC04E
:1020E000E5FF0BC0E5FF020EDBCF00F0030EDBCFF8
:1020F00001F0040EDBCF02F0050EDBCF03F0060E7D
:10210000DBCF04F002500A6E0150096E0050086ED9
:10211000E56A110EE56E0A50E56E0950E56E08504D
:10212000E56E800EE56E040EE56E240EE56E89EC1C
:1021300029F0080EE12633C405F034C406F0E86A3D
:10214000040134BFFF0E076E0A01596F0650586F25
:102150000550576F566B03C005F004C006F0E86ADF
:1021600004BEFF0E076E086E24C409F0E56AE56A36
:10217000E56A0950E56E0850E56E0750E56E0650B9
:10218000E56E0550E56E72EC1FF00A01526FF3CF59
:1021900053FAF4CF54FAE9CF55FA080EE1260401B8
:1021A0002551D8B4AFD00450800F800F02E1010E4A
:1021B000035C25E304012A51800F7C0F08E1000E27
:1021C000295D05E1000E285D02E1000E275D17E2A2
:1021D00004013251800FF36E0A015951800FF35CF4
:1021E0000DE158510401315D09E10A015751040123
:1021F000305D04E10A01565104012F5D33E3D880BC
:1022000004AED890D8A043D004012A51800F840F87
:1022100008E1000E295D05E1000E285D02E1010ED6
:10222000275D35E30A01591D0A6E581D096E571DB9
:10223000046E561D036E032A04E1042A02E1094AD2
:102240000A2A0A50800FF36E04013251800FF35CAA
:1022500008E13151095C05E13051045C02E12F5184
:10226000035C15E2055004012725036E0650282162
:10227000046E07502921096E08502A210A6E035066
:10228000276F0450286F0950296F0A502A6F0401E4
:1022900027390F0B036E2839046EF00B041A03263E
:1022A0002951E838F00B041229390F0B096E2A392D
:1022B0000A6EF00B0A1A0926F00E0AB60A2625C481
:1022C0000BF0E56AE56AE56A0B50E56E0A50E56ECB
:1022D0000950E56E0450E56E0350E56E72EC1FF098
:1022E000036EF3CF04F0F4CF09F0E9CF0AF0080E43
:1022F000E12603500A015227045053230950542366
:102300000A50552304012651D8B46CD02B51055CDA
:102310000A015A6F04012C5106580A015B6F04012F
:102320002D5107580A015C6F04012E5108580A010B
:102330005D6F800F800F08E1010E5C5D05E1000E0E
:102340005B5D02E1000E5A5D07E3FF0E0A015A6F62
:102350005B6F5C6B5D6B14D00A015D51800F810F68
:1023600008E1FF0E5C5D05E1000E5B5D02E1000E21
:102370005A5D06E20A015A6B5B6BFF0E5C6F5D6F84
:102380000A015D315C310A6E096A09325B51E8402D
:102390007F0B09125B315A31046E036A033226C483
:1023A0000BF0E56AE56AE56A0B50E56E0A50E56EEA
:1023B0000950E56E0450E56E0350E56E72EC1FF0B7
:1023C000036EF3CF04F0F4CF09F0E9CF0AF0080E62
:1023D000E12603500A015227045053230950542385
:1023E0000A505523055004012B6F06502C6F0750DF
:1023F0002D6F08502E6F0A015951800FF36E0A019C
:102400005551800FF35C0DE154510A01585D09E10B
:102410000A0153510A01575D04E10A0152510A01B0
:10242000565D11E20A01565104012F6F0A015751FE
:102430000401306F0A0158510401316F0A015951EA
:102440000401326F3AD00A01591D066E581D056EFF
:10245000571D046E561D036E032A04E1042A02E18F
:10246000054A062A0A015551800FF36E0650800F67
:10247000F35C08E10550545D05E10450535D02E151
:102480000350525D0AE2035004012F6F0450306F75
:102490000550316F0650326F10D00A0152510401BD
:1024A0002F6F0A0153510401306F0A015451040186
:1024B000316F0A0155510401326FE56A110EE56E64
:1024C000800EE56E040EE56E240EE56E0250E56E9C
:1024D0000150E56E0050E56E89EC29F0080EE1260A
:1024E000E4CF0BF0E4CF0AF0E4CF09F0E4CF08F03A
:1024F000E4CF07F0E4CF06F0E4CF05F0E4CF04F03A
:10250000E4CF03F0E4CF02F0E4CF01F0E4CF00F039
:10251000E4CFD9FF120000C0E5FF01C0E5FF02C013
:10252000E5FF03C0E5FFF0A274D00F012E512F117B
:102530003011311129E0EBEC32F0006EF3CF01F0F5
:10254000F4CF02F0E9CF03F00F012E51005E2F51BE
:10255000015A3051025A3151035A039E000E035C56
:1025600008E1000E025C05E1230E015C02E1280E89
:10257000005CD870006A0036016A00BE0168005035
:102580000401366F0150376FF8C42EFFF9C42FFFD6
:10259000FAC430FFFBC431FFF092006A040135B188
:1025A000002A0050010BE844F46E3551FD0BF41085
:1025B000356F8B928B968B988B9A040189958995B0
:1025C00089958995040135A303D084CA00F002D00F
:1025D00083CA00F000C09FFA040135A305D03CCAAD
:1025E00000F03DCA01F004D03ACA00F03BCA01F045
:1025F00000C081FA01C082FA0F014E910A01825196
:102600000F01506F0A0181510F014F6F7E920F0130
:102610004E817EA285D10F014E917E92040135A399
:10262000C0D0080E0A019F5DD8B078D1FA6AFB6A63
:102630009F35FA36E834FA36FC0B4A0FE56E260E63
:10264000FA22000EFB22E450F96E35EF13F048EF4A
:1026500013F05BEF13F06EEF13F081EF13F095EFD3
:1026600013F0A9EF13F0BDEF13F08B8208CA9FFAA5
:102670000A019F51080A01E151D10001F1510F01F6
:10268000506F0001F0510F014F6F0F014E8146D185
:102690008B8609CA9FFA0A019F51080A01E13ED1BF
:1026A0000001F3510F01506F0001F2510F014F6F04
:1026B0000F014E8133D18B880ACA9FFA0A019F51BC
:1026C000080A01E12BD10001F5510F01506F000103
:1026D000F4510F014F6F0F014E8120D18B8A0BCA2D
:1026E0009FFA0A019F51080A01E118D10001F75130
:1026F0000F01506F0001F6510F014F6F0F014E8116
:102700000DD1040189850CCA9FFA0A019F51080A5C
:1027100001E104D10001F9510F01506F0001F8519E
:102720000F014F6F0F014E81F9D0040189850DCA49
:102730009FFA0A019F51080A01E1F0D00001FB5104
:102740000F01506F0001FA510F014F6F0F014E81C1
:10275000E5D0040189850ECA9FFA0A019F51080A33
:1027600001E1DCD00001FD510F01506F0001FC516F
:102770000F014F6F0F014E81D1D0040189850FCA1F
:102780009FFA0A019F51080A01E1C8D00001FF51D8
:102790000F01506F0001FE510F014F6F0F014E816D
:1027A000BDD0080E0A019F5DD8B0B8D0FA6AFB6AA6
:1027B0009F35FA36E834FA36FC0BCA0FE56E270E61
:1027C000FA22000EFB22E450F96EF5EF13F008EF49
:1027D00014F01BEF14F02EEF14F041EF14F055EF4E
:1027E00014F069EF14F07CEF14F08B8200CA9FFAAA
:1027F0000A019F51080A01E191D00001E1510F0146
:10280000506F0001E0510F014F6F0F014E8186D0D4
:102810008B8601CA9FFA0A019F51080A01E17ED006
:102820000001E3510F01506F0001E2510F014F6FA2
:102830000F014E8173D08B8802CA9FFA0A019F5103
:10284000080A01E16BD00001E5510F01506F000152
:10285000E4510F014F6F0F014E8160D08B8A03CA84
:102860009FFA0A019F51080A01E158D00001E7517F
:102870000F01506F0001E6510F014F6F0F014E81A4
:102880004DD00401898504CA9FFA0A019F51080AA4
:1028900001E144D00001E9510F01506F0001E851FE
:1028A0000F014F6F0F014E8139D00401898505CA90
:1028B0009FFA0A019F51080A01E130D00001EB5153
:1028C0000F01506F0001EA510F014F6F0F014E8150
:1028D00025D00401898506CA9FFA0A019F51080A7A
:1028E0001DE00001ED510F01506F0001EC510F018F
:1028F0004F6F0F014E8112D00401898507CA9FFADC
:102900000A019F51080A0AE00001EF510F01506FC0
:102910000001EE510F014F6F0F014E817CEC20F052
:10292000E4CF03F0E4CF02F0E4CF01F0E4CF00F015
:102930001200D9CFE5FFE1CFD9FF00C0E5FF01C00C
:10294000E5FF02C0E5FF03C0E5FF04C0E5FF05C0E9
:10295000E5FF06C0E5FF07C0E5FF08C0E5FF09C0C9
:10296000E5FF0AC0E5FF020EDBCF00F0030EDBCF70
:1029700001F0040EDBCF02F0036A046A15EC33F0B9
:10298000056EFE0A01E077D002EC2EF015EC33F074
:10299000066E030E065CD8A05AD0060E065CD8B0B0
:1029A00056D0FD0E0624076EFA6AFB6A0734FA3623
:1029B000E834FA36FC0BC60FE56E290EFA22000E3B
:1029C000FB22E450F96EE9EF14F0FBEF14F014EF82
:1029D00015F00050090F076E000E0120086E000E62
:1029E000022007C0E9FF08C0F3FF11EC35F0036EC9
:1029F000F3CF04F02CD00050090F076E000E012019
:102A0000086E000E0220096E020E0726000E082234
:102A1000092207C0E9FF08C0F3FF095011EC35F0A7
:102A2000036EF3CF04F013D00050070F076E000EB3
:102A30000120086E000E022007C0E9FF08C0F3FF66
:102A400076EC35F0010B076E07C003F0046A06C090
:102A500007F00450E56E0350E56EE56A0750E56E39
:102A6000000EE56E190EE56EA40EE56E87EC2FF0F4
:102A7000070EE12634D1070E055CD8B030D1FA6AD2
:102A8000FB6A0534FA36E834FA36FC0B9C0FE56E27
:102A90002A0EFA22000EFB22E450F96E5CEF15F0CC
:102AA00077EF15F089EF15F09BEF15F0CDEF15F0EE
:102AB00003EF16F022EF16F00050230F036E000E06
:102AC0000120046E000E0220E56E0450E56E0350F6
:102AD000E56EC8EC1AF0030EE126020EE56E00C0AA
:102AE000E9FF01C0F3FF0250F4EC35F0F8D00050DC
:102AF000330F036E000E0120046E000E0220E56EFF
:102B00000450E56E0350E56E14EC1CF0030EE12654
:102B1000E6D00050440F036E000E0120046E000E3C
:102B20000220E56E0450E56E0350E56E14EC1CF0D7
:102B3000030EE126D4D00050090F036E000E0120D1
:102B4000046E000E0220056E15EC33F00A6E096A61
:102B5000E56A0AC0F4FF03C0E9FF04C0F3FF0550B3
:102B6000D1EC35F015EC33F0086A092608500A223A
:102B700009C0E5FF0AC0F4FF03C0E9FF04C0F3FF8A
:102B80000550D1EC35F0010EE56E00C0E9FF01C043
:102B9000F3FF0250F4EC35F0A2D00050090F036EA1
:102BA000000E0120046E000E0220056E020E0326A8
:102BB000000E0422052215EC33F00A6E096AE56A5C
:102BC0000AC0F4FF03C0E9FF04C0F3FF0550D1ECD5
:102BD00035F015EC33F0086A092608500A2209C0BE
:102BE000E5FF0AC0F4FF03C0E9FF04C0F3FF05508E
:102BF000D1EC35F0E56A00C0E9FF01C0F3FF0250F7
:102C0000F4EC35F06CD00050070F036E000E01207D
:102C1000046E000E0220056E15EC33F0010BF46E0D
:102C200003C0E9FF04C0F3FF055076EC35F0FE0B5E
:102C3000F410E56E03C0E9FF04C0F3FF0550F4ECA7
:102C400035F04DD015EC33F0066E0050160F036EC4
:102C5000000E0120046E000E0220056E03500C0FC2
:102C6000076E000E0420086E000E0520096E065047
:102C7000010BF46E07C0E9FF08C0F3FF095076ECC2
:102C800035F0FE0BF410E56E07C0E9FF08C0F3FF56
:102C90000950F4EC35F00650010A21E1080E032634
:102CA000000E04220522E56AF46AF66AF76A03C098
:102CB000E9FF04C0F3FF055087EC35F0230E002632
:102CC000000E01220222E56AE56A0250E56E01501B
:102CD000E56E0050E56ED3EC26F0050EE126E4CF5C
:102CE0000AF0E4CF09F0E4CF08F0E4CF07F0E4CF36
:102CF00006F0E4CF05F0E4CF04F0E4CF03F0E4CF36
:102D000002F0E4CF01F0E4CF00F0E4CFD9FF1200ED
:102D100000C0E5FF01C0E5FF02C0E5FF03C0E5FF1D
:102D200004C0E5FF05C0E5FF06C0E5FF07C0E5FFFD
:102D300008C0E5FF09C0E5FF0AC0E5FF0BC0E5FFDD
:102D40000CC0E5FF040135A509D0006A35B1002AA1
:102D5000016A35B3012A0050011801E056D104017F
:102D60003595010E006E00C001F00150D8B453D06B
:102D70000104026E810E0224036E046A040E042212
:102D800003C0E9FF04C0EAFFEFCF05F00550020DD4
:102D9000F450076EF3CF06F0E80E0626040E072265
:102DA00006C0E9FF07C0EAFFEECF06F0EFCF07F05D
:102DB000810E0124086E096A040E092208C0E9FF89
:102DC00009C0EAFFEFCF0AF00A50020DF4500C6E72
:102DD000F3CF0BF0E80E0B26040E0C220BC0E9FF1C
:102DE0000CC0EAFFEECF0BF0EFCF0CF007500C5CFD
:102DF00002E106500B5C0FE203C0E9FF04C0EAFFEA
:102E00000AC0EFFF08C0E9FF09C0EAFF05C0EFFFF5
:102E100002C001F0AAD7002A080E005CD8A0A3D7F0
:102E2000006A040135B1002A005003E1006A002A5B
:102E300001D0006A016A00BE0168830E00260A0EF6
:102E4000012281C402F000C0E9FF01C0EAFF02C014
:102E5000EFFF006A040135B1002A005003E1006A67
:102E6000002A01D0006A0050020DF45000BE020892
:102E7000016EF3CF00F03A0E00260A0E0122040183
:102E80008151020DF450036EF3CF02F0E80E0226DA
:102E9000040E032202C0E9FF03C0EAFFEECF02F0F6
:102EA000EFCF03F00250FF08026EFF0E035600C082
:102EB000E9FF01C0EAFF02C0EEFF03C0EFFF006AB6
:102EC000810E0024016E026A040E022201C0E9FF95
:102ED00002C0EAFFEFCF05F0040135B102D0080EC1
:102EE0000526000E0524016E026A0A0E0222002841
:102EF000036E810E0324046E066A040E062204C0CB
:102F0000E9FF06C0EAFFEFCF07F001C0E9FF02C00A
:102F1000EAFF07C0EFFF0550020DF450026EF3CF39
:102F200001F0E00E0126000E022204C0E9FF06C0F7
:102F3000EAFFEFCF04F00450020DF450066EF3CF19
:102F400004F0E80E0426040E062204C0E9FF06C0C1
:102F5000EAFFEECF04F0EFCF06F0810E0024076EFB
:102F6000086A040E082207C0E9FF08C0EAFFEFCF95
:102F700007F00750020DF450086EF3CF07F0E80E8B
:102F80000726040E082207C0E9FF08C0EAFFEECFBB
:102F900007F0EFCF08F00750045E0850065A0450BF
:102FA000FF08046EFF0E065601C0E9FF02C0EAFFEB
:102FB00004C0EEFF06C0EFFF03C000F0070E005C88
:102FC000D8A07ED788C405F0040135B102D0080E20
:102FD0000526006A000E05260A0E002205C0E9FF3C
:102FE00000C0EAFF080EEF6E006A040135B1002A46
:102FF0000050D880E866D890006A00360050010B77
:10300000F46E3551FE0BF410356FE4CF0CF0E4CFC5
:103010000BF0E4CF0AF0E4CF09F0E4CF08F0E4CFFE
:1030200007F0E4CF06F0E4CF05F0E4CF04F0E4CFFE
:1030300003F0E4CF02F0E4CF01F0E4CF00F012009F
:1030400000C0E5FF01C0E5FF02C0E5FF03C0E5FFEA
:1030500004C0E5FF05C0E5FF06C0E5FF07C0E5FFCA
:1030600008C0E5FF09C0E5FF0AC0E5FF0BC0E5FFAA
:103070000CC0E5FF0DC0E5FF0EC0E5FF000E00B07F
:10308000010F00B2020F00B4040F00B6080F00B821
:10309000060F00BA020F00BC040F00BE080F01B0FB
:1030A000060F01B2020F01B4040F01B6080F01B8F8
:1030B000060F01BA020F01BC040F01BE080F02B0D7
:1030C000060F02B2020F02B4040F02B6080F02B8D4
:1030D000060F02BA020F02BC040F02BE080F056AF7
:1030E000F60F02E3052AFCD70A0F046E055000B85C
:1030F000010F00BA030F00BC060F00BE020F01B0A3
:10310000050F01B2010F01B4020F01B6040F01B89F
:10311000090F01BA090F01BC080F01BE060F02B06A
:10312000030F02B2070F02B4040F02B6080F02B871
:10313000070F02BA050F066AF60F02E3062AFCD74C
:103140000A0F056E065000BE010F01B0020F01B25A
:10315000050F01BA010F01BC030F01BE070F02B03A
:10316000050F02B4010F02B6020F02B8050F02BA32
:10317000010F02BC030F02BE060F076AF60F02E33F
:10318000072AFCD70A0F066E075001B4010F01B6DB
:10319000020F01B8040F01BA080F01BC060F01BEEF
:1031A000020F02B0050F02B2010F02B4020F02B605
:1031B000040F02B8080F02BA070F02BC040F02BEC8
:1031C000080F086AF60F02E3082AFCD70A0F076EF9
:1031D000085001BC010F01BE030F02B0060F02B27E
:1031E000030F02B4060F02B6020F02B8040F02BAB0
:1031F000090F02BC090F02BE080F096AF60F02E3AD
:10320000092AFCD70A0F086E095002B2010F02B456
:10321000020F02B6050F02BC010F02BE030F0A6ABD
:10322000F60F02E30A2AFCD70A0F096E0A5002B809
:10323000010F02BA020F02BC040F02BE080F0B6A94
:10324000F60F02E30B2AFCD70A0F0A6E0B500E6A28
:103250000EE10A5010E1095012E1085014E1075044
:1032600016E1065018E105501AE104501CD00E2A50
:10327000300FEE6E0A500E2A300FEE6E09500E2AF5
:10328000300FEE6E08500E2A300FEE6E07500E2AE9
:10329000300FEE6E06500E2A300FEE6E05500E2ADD
:1032A000300FEE6E04500E2A300FEE6E0E50E4CF4B
:1032B0000EF0E4CF0DF0E4CF0CF0E4CF0BF0E4CF50
:1032C0000AF0E4CF09F0E4CF08F0E4CF07F0E4CF50
:1032D00006F0E4CF05F0E4CF04F0E4CF03F0E4CF50
:1032E00002F0E4CF01F0E4CF00F0120000C0E5FFEF
:1032F00001C0E5FF02C0E5FF03C0E5FF46EC26F094
:1033000088EC16F0EBEC32F0006EF3CF01F0F4CF66
:1033100002F0E9CF03F004017C51005E7D51015AB7
:103320007E51025A7F51035A039E3F0E035C08E10F
:10333000FF0E025C05E1FF0E015C02E1FF0E005C86
:10334000D8B0F8D0EBEC32F0F3CF01F0F4CF02F0CC
:10335000E9CF03F0880F04017C6F130E01207D6F0D
:10336000000E02207E6F000E03207F6F04C0E5FF79
:10337000F2CF04F0F29E0401A9510A012D6F04015D
:10338000AA510A012E6F0401AB510A012F6F0401EB
:10339000AC510A01306F0401AD510A01316F0401D3
:1033A000AE510A01326F0401AF510A01336F0401BB
:1033B000B0510A01346F0401B1510A01356F0401A3
:1033C000B2510A01366F0401B3510A01376F04018B
:1033D000B4510A01386F0401B5510A01396F040173
:1033E000AD6BAE6BAF6BB06B04BEF28EE4CF04F08E
:1033F000800EE56E040EE56E930EE56E44EC09F06A
:10340000030EE1269EC489FA9FC48AFA0A018A51F2
:10341000800F7C0F02E1000E895D04E30A018969D7
:10342000030E8A6F0A018A51800F840F02E1010E98
:10343000895D05E2010E0A01896FFC0E8A6F0A019F
:103440008A51800F800F02E1010E895D10E30A01AD
:103450008A51800FF36E04019751800FF35C03E1F2
:1034600096510A01895D03E20A01896B8A6BD88053
:103470000A018AAFD89015E30401971D016E961DCD
:10348000006E004A012A0150800FF36E0A018A5132
:10349000800FF35C02E18951005C03E20A01896B51
:1034A0008A6B04019AA309D0B5A507D0D8800A0178
:1034B0008AAFD89002E3896B8A6BD8800A018AAF01
:1034C000D89007E38A1D016E891D006E004A012A0B
:1034D00004D089CA00F08ACA01F000C08BFA01C08A
:1034E0008CFA0A018B51020BE840010BE838E844E2
:1034F000F46EBD50DF0BF410BD6E8B51010B010B50
:10350000E838F46EBD50EF0BF410BD6E8C358C3185
:10351000016E8B31006E0134013200320050BE6EFC
:10352000D8800A018AAFD89003E38A98898C02D0A8
:10353000899C8A880F01235122E0EBEC32F0006E67
:10354000F3CF01F0F4CF02F0E9CF03F00F013351D4
:10355000005E3451015A3551025A3651035A039EC6
:103560003F0E035C08E1FF0E025C05E1FF0E015C0B
:1035700002E1FF0E005C03E20F01236B899EE4CFA2
:1035800003F0E4CF02F0E4CF01F0E4CF00F012004A
:10359000D9CFE5FFE1CFD9FF00C0E5FF01C0E5FFCE
:1035A00002C0E5FF03C0E5FF04C0E5FF05C0E5FF7D
:1035B00006C0E5FF07C0E5FF08C0E5FF09C0E5FF5D
:1035C0000AC0E5FF0BC0E5FF020EDBCF00F0030EE3
:1035D000DBCF01F0040EDBCF02F0036A046A15ECC6
:1035E00033F0056EFE0A01E063D002EC2EF015EC1C
:1035F00033F0066E06500AE00650010A19E0065044
:10360000020A28E006500A0A37E040D00050060FB0
:10361000076E000E0120086E000E022007C0E9FFB1
:1036200008C0F3FF11EC35F0036EF3CF04F02ED099
:1036300000500C0F076E000E0120086E000E0220D5
:1036400007C0E9FF08C0F3FF11EC35F0036EF3CFBC
:1036500004F01CD000500E0F076E000E0120086E03
:10366000000E022007C0E9FF08C0F3FF11EC35F09F
:10367000036EF3CF04F00AD000C0E9FF01C0F3FFEE
:10368000025011EC35F0036EF3CF04F00450E56EF8
:103690000350E56EE56A0650E56E000EE56E5D0EC0
:1036A000E56E4A0EE56E87EC2FF0070EE126A1D0FD
:1036B00005500CE00550010A32E00550020A01E114
:1036C00057D005500A0A01E17CD093D00050060F74
:1036D000056E000E0120066E000E0220076E15EC2E
:1036E00033F00B6E0A6AE56A0BC0F4FF05C0E9FF10
:1036F00006C0F3FF0750D1EC35F015EC33F0096A42
:103700000A2609500B220AC0E5FF0BC0F4FF05C0D2
:10371000E9FF06C0F3FF0750D1EC35F06AD0005046
:103720000C0F056E000E0120066E000E0220076EC3
:1037300015EC33F00B6E0A6AE56A0BC0F4FF05C0A6
:10374000E9FF06C0F3FF0750D1EC35F015EC33F07C
:10375000096A0A2609500B220AC0E5FF0BC0F4FFD4
:1037600005C0E9FF06C0F3FF0750D1EC35F041D0AA
:1037700000500E0F056E000E0120066E000E022096
:10378000076E15EC33F00B6E0A6AE56A0BC0F4FFA6
:1037900005C0E9FF06C0F3FF0750D1EC35F015EC8A
:1037A00033F0096A0A2609500B220AC0E5FF0BC054
:1037B000F4FF05C0E9FF06C0F3FF0750D1EC35F078
:1037C00018D015EC33F0046E036A15EC33F0066A7A
:1037D0000326065004220450E56E0350E56E0250A5
:1037E000E56E0150E56E0050E56E68EC31F0050EB7
:1037F000E126E4CF0BF0E4CF0AF0E4CF09F0E4CF08
:1038000008F0E4CF07F0E4CF06F0E4CF05F0E4CF12
:1038100004F0E4CF03F0E4CF02F0E4CF01F0E4CF12
:1038200000F0E4CFD9FF1200D9CFE5FFE1CFD9FFF7
:1038300000C0E5FF01C0E5FF02C0E5FF03C0E5FFF2
:1038400004C0E5FF05C0E5FF06C0E5FF07C0E5FFD2
:1038500008C0E5FF020EDBCF00F0030EDBCF01F066
:10386000040EDBCF02F0036A046A15EC33F0056E38
:10387000FE0A01E075D002EC2EF015EC33F0066E76
:10388000040E065CD8B05AD0FA6AFB6A0634FA36DF
:10389000E834FA36FC0BA60FE56E380EFA22000E5D
:1038A000FB22E450F96E5BEF1CF067EF1CF07AEF3F
:1038B0001CF08DEF1CF000C0E9FF01C0F3FF0250C7
:1038C00076EC35F0076E07C003F0046A37D000507D
:1038D000010F076E000E0120086E000E022007C0C7
:1038E000E9FF08C0F3FF76EC35F0076E07C003F080
:1038F000046A24D00050020F076E000E0120086EEB
:10390000000E022007C0E9FF08C0F3FF76EC35F097
:10391000076E07C003F0046A11D000500F0F076E46
:10392000000E0120086E000E022007C0E9FF08C04B
:10393000F3FF11EC35F0036EF3CF04F00450E56EA5
:103940000350E56EE56A0650E56E000EE56E4A0E20
:10395000E56E440EE56E87EC2FF0070EE1268DD064
:10396000040E055CD8B089D0FA6AFB6A0534FA36D1
:10397000E834FA36FC0B860FE56E390EFA22000E9B
:10398000FB22E450F96ECBEF1CF0D8EF1CF003EFF4
:103990001DF019EF1DF015EC33F0036E03C0E5FFC9
:1039A00000C0E9FF01C0F3FF0250F4EC35F065D030
:1039B0000050010F036E000E0120046E000E022065
:1039C000056E15EC33F0066E06C0E5FF03C0E9FF97
:1039D00004C0F3FF0550F4EC35F00650D8A44DD0E8
:1039E0000050030F036E000E0120046E000E022033
:1039F000E56AF46AF66AF76A03C0E9FF04C0F3FFF8
:103A000087EC35F03AD00050020F036E000E012013
:103A1000046E000E0220056E15EC33F0066E06C033
:103A2000E5FF03C0E9FF04C0F3FF0550F4EC35F0F7
:103A300024D00F0E0026000E0122022215EC33F0D6
:103A4000066E056AE56A06C0F4FF00C0E9FF01C022
:103A5000F3FF0250D1EC35F015EC33F0046A052683
:103A60000450062205C0E5FF06C0F4FF00C0E9FFD0
:103A700001C0F3FF0250D1EC35F0E4CF08F0E4CF01
:103A800007F0E4CF06F0E4CF05F0E4CF04F0E4CF94
:103A900003F0E4CF02F0E4CF01F0E4CF00F0E4CF94
:103AA000D9FF1200D9CFE5FFE1CFD9FF00C0E5FF74
:103AB00001C0E5FF02C0E5FF03C0E5FF04C0E5FF6C
:103AC00005C0E5FF06C0E5FF07C0E5FF08C0E5FF4C
:103AD00009C0E5FF0AC0E5FF0BC0E5FF020EDBCF22
:103AE00000F0030EDBCF01F0040EDBCF02F0050E79
:103AF000DBCF03F0060EDBCF04F0070EDBCF05F0C3
:103B0000080EDBCF06F0090EDBCF07F006C008F089
:103B1000060608500EE006500424086EE86A06BE49
:103B2000E8680520096E08C0E9FF09C0EAFFEF6AEE
:103B3000EDD700500A01726F0150736F0250746F1D
:103B40000350756F72CA00F073CA01F074CA02F0B4
:103B500075CA03F0066A086A096A800E03140A6EC1
:103B6000065007E1085005E1095003E10A50800AB8
:103B700001E012D0039E00500A01726F0150736F72
:103B80000250746F0350756F04C0E9FF05C0EAFF6F
:103B90002D0EEF6E044A052A0A01743575357E082C
:103BA000006E7251016E7351026E7F0E7415036EBA
:103BB000066A038E086A096A0A6A0B6A005019E0ED
:103BC000D88000AED8900EE30850082609360A3691
:103BD0000B3603BE08800150012602360336063636
:103BE000002AECD7D89006320332023201320006A6
:103BF000E5D7085009100A100B1012E00550E56EC9
:103C00000450E56E0B50E56E0A50E56E0950E56E06
:103C10000850E56EC0EC32F0006E060EE12608D0CA
:103C200004C0E9FF05C0EAFF300EEF6E010E006E22
:103C300000500426E86A00BEE8680522075028E024
:103C400004C0E9FF05C0EAFF2E0EEF6E002A044A09
:103C5000052A07501808E56E0550E56E0450E56E1C
:103C60000650E56E0350E56E0250E56E0150E56EBC
:103C7000D1EC31F0016E070EE1260150002607500D
:103C80000426E86A052204C0E9FF05C0EAFFEF6ADE
:103C90000050E4CF0BF0E4CF0AF0E4CF09F0E4CF1A
:103CA00008F0E4CF07F0E4CF06F0E4CF05F0E4CF6E
:103CB00004F0E4CF03F0E4CF02F0E4CF01F0E4CF6E
:103CC00000F0E4CFD9FF120000C0E5FF01C0E5FF1E
:103CD00002C0E5FF03C0E5FF05C0E5FF26EC36F0B6
:103CE000EBEC32F0F3CF01F0F4CF02F0E9CF03F0C8
:103CF000880F04017C6F130E01207D6F000E0220DF
:103D00007E6F000E03207F6FECEC27F08A96899E71
:103D10008B809396929E94908B9C949C8A98899C7D
:103D20008B84040189859398929C949404019295C4
:103D30009283800E006E040E016E0F0E036E380E1D
:103D40000026035001220F0E036E800E005E03500A
:103D5000015A800E026E040E036E0F0E056E380EB1
:103D60000226055003220F0E056E800E025E0550DE
:103D7000035A02C0E9FF03C0EAFFEFCF02F002924C
:103D800000C0E9FF01C0EAFF02C0EFFF9283800E8E
:103D9000006E040E016E0F0E036E380E00260350E7
:103DA00001220F0E036E800E005E0350015A800E3A
:103DB000026E040E036E0F0E056E380E02260550BD
:103DC00003220F0E056E800E025E0550035A02C0DC
:103DD000E9FF03C0EAFFEFCF02F0029200C0E9FF63
:103DE00001C0EAFF02C0EFFF9283800E006E040E56
:103DF000016E0F0E036E380E0026035001220F0EC7
:103E0000036E800E005E0350015A800E026E040E97
:103E1000036E0F0E056E380E0226055003220F0E9C
:103E2000056E800E025E0550035A02C0E9FF03C012
:103E3000EAFFEFCF02F0029200C0E9FF01C0EAFF03
:103E400002C0EFFF0C0EBD6EBD9ABD98BE6AB96A86
:103E5000B9860401936B020E946F956B0A0E966FF0
:103E6000976B100E986F070E996F9A919A83800E38
:103E7000E56E040EE56EB60EE56E56EC2EF0030E02
:103E8000E126800EE56E040EE56ED70EE56E92EC2F
:103E900024F0030EE126800EE56E040EE56EC60EDC
:103EA000E56E92EC24F0030EE1260401B16BB26BD7
:103EB000B36BB46BB591B5959C6B9D6B9E6B9F6B13
:103EC000A46BA56BA66BA76BE4CF05F0E4CF03F062
:103ED000E4CF02F0E4CF01F0E4CF00F012004300A1
:103EE00025630000D9CFE5FFE1CFD9FF00C0E5FF92
:103EF00001C0E5FF02C0E5FF03C0E5FF04C0E5FF28
:103F000005C0E5FF06C0E5FF07C0E5FF020EDBCFF9
:103F100000F0030EDBCF01F0040EDBCF02F0050E44
:103F2000DBCF03F0060EDBCF04F0070EDBCF05F08E
:103F3000080EDBCF06F0090EDBCF07F000500A01B8
:103F40005E6F01505F6F0250606F0350616F0450ED
:103F50000A01626F0550636F0650646F0750656F0A
:103F60000A015E510A016403F4CF01F0F3CF00F0BF
:103F700000500A01686F0150696F0A015E510A0121
:103F80006203F4CF01F0F3CF00F000500A01666F36
:103F90000150676F0A0161510A016203F3CF00F01B
:103FA0000A01695100260050696F0A0160510A0137
:103FB0006303F3CF00F00A01695100260050696FD6
:103FC0000A0160510A016203F4CF01F0F3CF00F05F
:103FD0000A0168510026695101220050686F0150A2
:103FE000696F0A015F510A016303F4CF01F0F3CF57
:103FF00000F00A0168510026695101220050686FE3
:104000000150696F0A015F510A016403F3CF00F0A8
:1040100000500A016D6F0A015F510A016203F4CF7B
:1040200001F0F3CF00F000500A016B6F01506C6F8C
:104030000A015E510A016503F3CF00F000500A0146
:10404000716F0A015E510A016303F4CF01F0F3CFEF
:1040500000F000500A016F6F0150706F0A016A6B27
:104060000A016E6B0A016A510A016625006E0A0197
:104070006B510A016721016E0A016C510A01682126
:10408000026E0A016D510A016921036E0050666FCC
:104090000150676F0250686F0350696F0A016E51DB
:1040A0000A016625006E0A016F510A016721016E3F
:1040B0000A0170510A016821026E0A0171510A0158
:1040C0006921036E03C0E9FF02C0F4FF01C0F3FFE2
:1040D0000050E4CF07F0E4CF06F0E4CF05F0E4CFE2
:1040E00004F0E4CF03F0E4CF02F0E4CF01F0E4CF3A
:1040F00000F0E4CFD9FF120000C0E5FF01C0E5FFEA
:104100000F012B51D8B4F5D0A3A81DD0A4A81BD063
:104110000A0197510A01941905E1B5EC35F00A013D
:10412000946BE7D0000E0A019725006E016A0F0E0E
:10413000012200C0E9FF01C0EAFFEFCF90FA972B00
:1041400090CA73FFD6D0A4AAD4D071A205D00A0118
:104150009581B5EC35F0CDD071A405D00A019583D9
:10416000B5EC35F0C6D071A03ED074CF90FA800E79
:104170000F012C110A01901904E10A019589719629
:10418000B8D00A01905104E090510F012C1927E199
:104190000A01959971960A01905103E00A019597D9
:1041A00002D00A01958790CA99FA92CA9AFA0A012E
:1041B00092050A019B6F600E0A019A25006E016A42
:1041C000000E012200C0E9FF01C0EAFF90CAEFFF24
:1041D0009A2B9A51800A02E10A019A6B8AD00A014D
:1041E0009599718686D074CF90FA0A0195A919D055
:1041F000800E0F012C110A01901911E1899AA39ADE
:1042000071980A01945104E1736AB5EC35F007D056
:1042100000CF73FF010E0A01976FA3886AD07186E1
:1042200068D00A0190510A0199270A019A510A019E
:104230009B191BE10A0199510CE19ACA92FA0A01F1
:1042400095B712D0899AA39A7198736AB5EC35F034
:104250000BD00A01958595B707D0899AA39A7198D2
:10426000010E736EB5EC35F044D00A019A510A0183
:10427000931908E10A0193510A01921903E0B5EC80
:1042800035F037D092CA00F0016A004A012AE56A87
:10429000800EE56E0150E56E0050E56E86EC2AF06A
:1042A000006E040EE12600500A01916F0A019A196E
:1042B0000CE11F0E0A0190150A019B6F9B2B9B2B93
:1042C0000A0192510A019B279B9F9ACA00F00A019A
:1042D0009A2B016A600E0026000E012200C0E9FF41
:1042E00001C0EAFF90CAEFFF9A51800A02E10A0179
:1042F0009A6BE4CF01F0E4CF00F01200D9CFE5FFD4
:10430000E1CFD9FF00C0E5FF01C0E5FF02C0E5FF36
:1043100003C0E5FF04C0E5FF05C0E5FF06C0E5FFFB
:1043200007C0E5FF08C0E5FF09C0E5FF0AC0E5FFDB
:104330000BC0E5FF0CC0E5FF0DC0E5FF0EC0E5FFBB
:104340000FC0E5FF020EDBCF00F0030EDBCF01F064
:10435000040EDBCF02F0050EDBCF03F0060EDBCF41
:1043600004F0070EDBCF05F0080EDBCF06F0200EC1
:10437000076E086A06C009F00A6A0B6A0C6AE56AE9
:10438000E56AE56A0950E56E0350E56E0250E56E98
:104390000150E56E0050E56E26EC25F00D6E080E1E
:1043A000E126300E0D263A0E0D5C05E30D500E6E23
:1043B000270E0E240D6EFF0E072608225C0E072422
:1043C0000E6E040E08200F6E0EC0E9FF0FC0EAFF4C
:1043D0000DC0EFFF0C50E56E0B50E56E0A50E56E18
:1043E0000950E56E0350E56E0250E56E0150E56E32
:1043F0000050E56E60EC27F0006EF3CF01F0F4CFD3
:1044000002F0E9CF03F0080EE1260050011002107F
:104410000310D8A4AFD707C000F008C001F004C053
:1044200002F005C003F000C004F001C005F0004A2E
:10443000012A5C0E0426040E052204C0E9FF05C013
:10444000EAFFEFCF04F002C0E9FF03C0EAFF04C0B7
:10445000EFFF024A032A000E015C02E1200E005C1D
:10446000E2E302C0E9FF03C0EAFF000EEF6AE4CF17
:104470000FF0E4CF0EF0E4CF0DF0E4CF0CF0E4CF7A
:104480000BF0E4CF0AF0E4CF09F0E4CF08F0E4CF7A
:1044900007F0E4CF06F0E4CF05F0E4CF04F0E4CF7A
:1044A00003F0E4CF02F0E4CF01F0E4CF00F0E4CF7A
:1044B000D9FF1200D9CFE5FFE1CFD9FF00C0E5FF5A
:1044C00001C0E5FF02C0E5FF03C0E5FF04C0E5FF52
:1044D00005C0E5FF06C0E5FF07C0E5FF08C0E5FF32
:1044E00009C0E5FF0AC0E5FF0BC0E5FF0CC0E5FF12
:1044F0000DC0E5FF020EDBCF00F0030EDBCF01F0B5
:10450000040EDBCF02F0050EDBCF03F0060EDBCF8F
:1045100004F0070EDBCF05F0080EDBCF06F0090E26
:10452000DBCF07F0D88003AED890086A0836085071
:104530000FE0031C0C6E021C0B6E011C0A6E001CAB
:10454000096E092A0DE10A2A0BE10B4A0C2A08D050
:1045500000C009F001C00AF002C00BF003C00CF06B
:10456000D88007AED890006A003600500FE0071CD4
:104570000D6E061C036E051C026E041C016E012AE2
:104580000DE1022A0BE1034A0D2A08D004C001F014
:1045900005C002F006C003F007C00DF00D50E56E37
:1045A0000350E56E0250E56E0150E56E0C50E56E6D
:1045B0000B50E56E0A50E56E0950E56E60EC27F091
:1045C000016EF3CF02F0F4CF03F0E9CF04F0080E50
:1045D000E1260050081A085016E0041C076E031C60
:1045E000066E021C056E011C006E002A04E1052AFD
:1045F00002E1064A072A07C0E9FF06C0F4FF05C02A
:10460000F3FF005007D004C0E9FF03C0F4FF02C06D
:10461000F3FF0150E4CF0DF0E4CF0CF0E4CF0BF04A
:10462000E4CF0AF0E4CF09F0E4CF08F0E4CF07F0DC
:10463000E4CF06F0E4CF05F0E4CF04F0E4CF03F0DC
:10464000E4CF02F0E4CF01F0E4CF00F0E4CFD9FFF3
:104650001200D9CFE5FFE1CFD9FF00C0E5FF01C0CF
:10466000E5FF02C0E5FF03C0E5FF04C0E5FF05C0AC
:10467000E5FF06C0E5FF07C0E5FF08C0E5FF020E45
:10468000DBCF00F0030EDBCF01F0040EDBCF02F036
:10469000040136513711D8B446D00050020DF45001
:1046A000046EF3CF03F0E80E0326040E042201503B
:1046B000FF08056EFF0E0254E56AE56AE56E0550D7
:1046C000E56EE56AE56A5D0EE56EC00EE56E72ECBC
:1046D0001FF0056EF3CF06F0F4CF07F0E9CF08F036
:1046E000080EE126E56AE56AE568E5680850E56ECA
:1046F0000750E56E0650E56E0550E56E60EC27F05C
:10470000056EF3CF06F0080EE126280E0526230ECF
:104710000622000E03C0E9FF04C0EAFF05C0EEFF59
:1047200006C0EFFF46D00050020DF450036EF3CFE9
:1047300000F0E80E0026040E03220150FF08016E6F
:10474000FF0E0256E56AE56A0250E56E0150E56E1D
:10475000E56AE56A790EE56E180EE56E72EC1FF0FB
:10476000016EF3CF02F0F4CF04F0E9CF05F0080EAC
:10477000E126E56AE56AE568E5680550E56E0450FE
:10478000E56E0250E56E0150E56E60EC27F0016EBB
:10479000F3CF02F0080EE126400E01261F0E022282
:1047A000000E00C0E9FF03C0EAFF01C0EEFF02C037
:1047B000EFFF04013585E4CF08F0E4CF07F0E4CF44
:1047C00006F0E4CF05F0E4CF04F0E4CF03F0E4CF4B
:1047D00002F0E4CF01F0E4CF00F0E4CFD9FF120003
:1047E00000C0E5FF01C0E5FF02C0E5FF03C0E5FF33
:1047F00004C0E5FF05C0E5FF06C0E5FF07C0E5FF13
:1048000008C0E5FF15EC33F0006E15EC33F0016ED7
:10481000030E005CD8B073D0FA6AFB6A0034FA3633
:10482000E834FA36FC0B360FE56E480EFA22000E1D
:10483000FB22E450F96E21EF24F027EF24F07AEF09
:1048400024F0015002E18A965AD08A8658D001504D
:1048500002E1899E54D0898E010E0F01236FEBEC8B
:1048600032F0006EF3CF02F0F4CF03F0E9CF04F0A2
:1048700024CF05F025CF06F0E56AE56A0650E56E1F
:104880000550E56EE56AE56A030EE56EE80EE56E35
:1048900072EC1FF0056EF3CF06F0F4CF07F0E9CF0E
:1048A00008F0080EE126E56AE56A030EE56EE80EFB
:1048B000E56E0850E56E0750E56E0650E56E055052
:1048C000E56E60EC27F0056EF3CF06F0F4CF07F04D
:1048D000E9CF08F0080EE126055000240F01336FE0
:1048E00006500220346F07500320356F0850042013
:1048F000366F05D0015002E18B9C01D08B8CE4CF48
:1049000008F0E4CF07F0E4CF06F0E4CF05F0E4CF01
:1049100004F0E4CF03F0E4CF02F0E4CF01F0E4CF01
:1049200000F01200D9CFE5FFE1CFD9FF00C0E5FFCD
:1049300001C0E5FF02C0E5FF03C0E5FF04C0E5FFDD
:1049400005C0E5FF06C0E5FF07C0E5FF020EDBCFAF
:1049500000F0030EDBCF01F0040EDBCF02F00050BD
:104960000B0F036E000E0120046E000E0220E56A9C
:10497000F46AF66AF76A03C0E9FF04C0F3FF87EC44
:1049800035F00050070F036E000E0120046E000E7C
:104990000220056E0050030F066E000E0120076E08
:1049A000000E0220E56AF46AF66AF76A06C0E9FFBB
:1049B00007C0F3FF87EC35F0E56AF46AF66AF76A38
:1049C00003C0E9FF04C0F3FF055087EC35F0005049
:1049D000010F036E000E0120046E000E0220056E12
:1049E0000050020F066E000E0120076E000E02201E
:1049F000E56A06C0E9FF07C0F3FFF4EC35F0E56AAD
:104A000003C0E9FF04C0F3FF0550F4EC35F0E56A9C
:104A100000C0E9FF01C0F3FF0250F4EC35F0E4CF31
:104A200007F0E4CF06F0E4CF05F0E4CF04F0E4CFE4
:104A300003F0E4CF02F0E4CF01F0E4CF00F0E4CFE4
:104A4000D9FF120025642025640A0000D9CFE5FFB4
:104A5000E1CFD9FF00C0E5FF01C0E5FF02C0E5FFDF
:104A600003C0E5FF04C0E5FF05C0E5FF06C0E5FFA4
:104A700007C0E5FF08C0E5FF09C0E5FF0AC0E5FF84
:104A8000020EDBCF00F0030EDBCF01F0040EDBCF14
:104A900002F0050EDBCF03F0060EDBCF04F0070EAD
:104AA000DBCF05F0080EDBCF06F0090EDBCF07F0F9
:104AB000086A096A0750800BE8440A6E0A501BE135
:104AC000045004260536063607360750035C08E115
:104AD0000650025C05E10550015C02E10450005CF7
:104AE00006E2D890073206320532043204D0092A91
:104AF00009C008F0DFD70750035C08E10650025CEC
:104B000005E10550015C02E10450005C08E304503B
:104B1000005E0550015A0650025A0750035AD890B9
:104B2000073206320532043208C009F0080609507F
:104B3000E2E103C0E9FF02C0F4FF01C0F3FF00504F
:104B4000E4CF0AF0E4CF09F0E4CF08F0E4CF07F0B7
:104B5000E4CF06F0E4CF05F0E4CF04F0E4CF03F0B7
:104B6000E4CF02F0E4CF01F0E4CF00F0E4CFD9FFCE
:104B7000120000C0E5FF01C0E5FF03C0E5FF04C06F
:104B8000E5FF05C0E5FF06C0E5FF07C0E5FF08C07B
:104B9000E5FF09C0E5FF0AC0E5FF0BC0E5FF7FCADE
:104BA00000F080CA01F00A017F3F01D0802B005045
:104BB000E56EA7EC35F0E652076E046A056A066AF0
:104BC0007FCA00F080CA01F00A017F3F01D0802B2C
:104BD0000050E56EA7EC35F0E6520B6A0A6E086AE3
:104BE0000850041205120A5006120B5007127FCA11
:104BF00000F080CA01F00A017F3F01D0802B0050F5
:104C0000E56EA7EC35F0E652036E006A03C001F0D2
:104C1000E86A03BEFF0E086E096E005004120150D0
:104C2000051208500612095007127FCA00F080CA08
:104C300001F00A017F3F01D0802B0050E56EA7EC08
:104C400035F0E652016A04120150051206120712ED
:104C500007C0E9FF06C0F4FF05C0F3FF0450E4CF2E
:104C60000BF0E4CF0AF0E4CF09F0E4CF08F0E4CF92
:104C700007F0E4CF06F0E4CF05F0E4CF04F0E4CF92
:104C800003F0E4CF01F0E4CF00F0120000C0E5FF34
:104C900001C0E5FF02C0E5FF03C0E5FF04C0E5FF7A
:104CA0000A0193510A01921901E15FD093CA00F001
:104CB000002A009E600E0024016E026A000E02228D
:104CC00001C0E9FF02C0EAFFEFCF9DFA1F0E0A0103
:104CD0009D1793CA9CFA9D510A019C279C2B9C2BE3
:104CE0009C9F15EC33F0016E015003E1016A012A2B
:104CF00001D0016A15EC33F00A019D6F800E9D15FD
:104D0000026E1F0E9D15036E03C004F003C09DFAD2
:104D1000045003E192CA93FA3BD001501BE00250C9
:104D200022E015EC33F0006E0A019D070050420AA4
:104D30001AE000504E0A03E145EC2FF014D0005069
:104D4000460A03E1E9EC35F00ED00050490A0BE1C8
:104D5000FF0009D093CA9EFA025003E003EC32F040
:104D600002D0BAEC30F09CCA93FA0F0128510F011F
:104D7000291906E00A01945103E177EC28F008D0E4
:104D800089BA06D00A01945103E172B2B5EC35F04C
:104D9000E4CF04F0E4CF03F0E4CF02F0E4CF01F07D
:104DA000E4CF00F01200D9CFE5FFE1CFD9FF00C07A
:104DB000E5FF01C0E5FF02C0E5FF03C0E5FF04C059
:104DC000E5FF05C0E5FF06C0E5FF07C0E5FF08C039
:104DD000E5FF0BC0E5FF0CC0E5FF0DC0E5FF020ECF
:104DE000DBCF00F0030EDBCF01F0040EDBCF02F0CF
:104DF000050EDBCF03F0060EDBCF04F003C0E5FFAA
:104E000004C0F4FF00C0E9FF01C0F3FF0250D1EC81
:104E100035F00050020F056E000E0120066E000EE8
:104E20000220076EE86A04BEFF0E086E04500C6E86
:104E30000C2608340D6ED8900C360D360344E84429
:104E4000FC0B0B6E0350E844E844030B0C12E56ABC
:104E50000BC0F4FF0CC0F6FF0DC0F7FF05C0E9FF63
:104E600006C0F3FF075087EC35F0080E0026000E51
:104E700001220222E56AF46AF66AF76A00C0E9FFD5
:104E800001C0F3FF025087EC35F0E4CF0DF0E4CF22
:104E90000CF0E4CF0BF0E4CF08F0E4CF07F0E4CF60
:104EA00006F0E4CF05F0E4CF04F0E4CF03F0E4CF64
:104EB00002F0E4CF01F0E4CF00F0E4CFD9FF12001C
:104EC000D9CFE5FFE1CFD9FF00C0E5FF01C0E5FF85
:104ED00002C0E5FF03C0E5FF04C0E5FF05C0E5FF34
:104EE00006C0E5FF07C0E5FF08C0E5FF09C0E5FF14
:104EF0000AC0E5FF0BC0E5FF0CC0E5FF0DC0E5FFF4
:104F0000020EDBCF00F0030EDBCF01F0040EDBCF8F
:104F100002F0050EDBCF03F0060EDBCF04F0070E28
:104F2000DBCF05F0080EDBCF06F0090EDBCF07F074
:104F3000086A096A0A6A0B6A200E0C6E0350800B1D
:104F4000E8440D6E00500026013602360336085044
:104F5000082609360A360B360D50D8A408800750AB
:104F60000B5C08E106500A5C05E10550095C02E1B2
:104F70000450085C09E30450085E0550095A0650C5
:104F80000A5A07500B5A00800C2ED8D703C0E9FFED
:104F900002C0F4FF01C0F3FF0050E4CF0DF0E4CFF6
:104FA0000CF0E4CF0BF0E4CF0AF0E4CF09F0E4CF4B
:104FB00008F0E4CF07F0E4CF06F0E4CF05F0E4CF4B
:104FC00004F0E4CF03F0E4CF02F0E4CF01F0E4CF4B
:104FD00000F0E4CFD9FF120000C0E5FF01C0E5FFFB
:104FE00002C0E5FF03C0E5FF04C0E5FF05C0E5FF23
:104FF0000401356B0F014E6B0F014E8B4E837F8288
:105000004E917E927D82006A016A026AE80E012456
:10501000036E040E0220046E03C0E9FF04C0EAFF21
:10502000EE68EF68810E0024036E046A040E042209
:1050300003C0E9FF04C0EAFF00C0EFFF020E012633
:10504000D8B0022A002A080E005CE0E39384810EA7
:10505000006E0F0E016E0F0E036E380E0026035009
:1050600001220F0E036E800E005E0350015A810E66
:10507000026E0F0E036E0F0E056E380E02260550DF
:1050800003220F0E056E800E025E0550035A02C009
:10509000E9FF03C0EAFFEFCF02F0029400C0E9FF8E
:1050A00001C0EAFF02C0EFFFF188F08EF092F088B5
:1050B0008B928B968B988B9A04018995899589950B
:1050C0008995949294969498949A040192959295C5
:1050D00092959295E4CF05F0E4CF04F0E4CF03F08D
:1050E000E4CF02F0E4CF01F0E4CF00F0120000C002
:1050F000E5FF01C0E5FF02C0E5FF03C0E5FF72A2C6
:1051000076D0F8EC33F0006E005005E10F01296B0A
:105110000F01286B6CD029CF01F000500126F8EC6C
:1051200033F0026E00060250230A1FE1010E005CFC
:10513000D8A05BD0F8EC33F0026E690A03E165ECAD
:1051400032F053D00250720A03E1B5EC35F04DD085
:105150000250730A01E049D0898A7186A38AA39814
:10516000745074507198718840D00250430A05E021
:105170000250420A01E039D001D0008E00C096FAF8
:1051800000500F01006F010E0A01976F0F012951A6
:10519000011814E0F8EC33F0026E0A019627000EB5
:1051A0000A019725006E036A0F0E032200C0E9FF73
:1051B00003C0EAFF02C0EFFF972BE8D7000E0A01F9
:1051C0009725006E026A0F0E02220A01961D036ED9
:1051D000032A00C0E9FF02C0EAFF03C0EFFF0A0193
:1051E000972B97CA94FA0A018E6B01C029FFE4CF6E
:1051F00003F0E4CF02F0E4CF01F0E4CF00F01200BE
:10520000D9CFE5FFE1CFD9FF00C0E5FF01C0E5FF41
:1052100002C0E5FF03C0E5FF04C0E5FF05C0E5FFF0
:1052200006C0E5FF07C0E5FF020EDBCF00F0030E6E
:10523000DBCF01F0040EDBCF02F0050EDBCF03F075
:1052400002C006F00650046E800A33E100C0E9FF98
:1052500001C0F3FF025052EC34F0056EF3CF06F0BC
:10526000F4CF07F003C0E5FF05C0E9FF06C0F3FF78
:105270000750F4EC35F000C0E9FF01C0F3FF025025
:1052800052EC34F0056EF3CF06F0F4CF07F0052AA8
:1052900002E3064A072A05C0E5FF06C0F4FF07C07F
:1052A000F6FF00C0E9FF01C0F3FF025098EC35F0B3
:1052B0001DD004AA1BD0047A045004E103502BEC47
:1052C00036F014D00450010A04E1035002EC00F05F
:1052D0000DD004500F0A04E1035034EC32F006D034
:1052E00004500E0A03E103503EEC36F0E4CF07F021
:1052F000E4CF06F0E4CF05F0E4CF04F0E4CF03F010
:10530000E4CF02F0E4CF01F0E4CF00F0E4CFD9FF26
:105310001200D9CFE5FFE1CFD9FF00C0E5FF01C002
:10532000E5FF02C0E5FF03C0E5FF04C0E5FF05C0DF
:10533000E5FF06C0E5FF07C0E5FF08C0E5FF09C0BF
:10534000E5FF0AC0E5FF0BC0E5FF0CC0E5FF020E5C
:10535000DBCF00F0030EDBCF01F0040EDBCF02F059
:10536000050EDBCF03F0060EDBCF04F0070EDBCF1C
:1053700005F0080EDBCF06F0090EDBCF07F0025078
:105380000A6E0150096E0050086E06C00BF007C08F
:105390000CF0FF0E062607220B500C101AE003C07B
:1053A000E9FF04C0F3FF055076EC35F00B6E032ADD
:1053B00002E3044A052A0BC0E5FF08C0E9FF09C063
:1053C000F3FF0A50F4EC35F0082ADFE3094A0A2A11
:1053D000DCD702C0F4FF01C0F3FF0050E4CF0CF0B3
:1053E000E4CF0BF0E4CF0AF0E4CF09F0E4CF08F00B
:1053F000E4CF07F0E4CF06F0E4CF05F0E4CF04F00B
:10540000E4CF03F0E4CF02F0E4CF01F0E4CF00F00A
:10541000E4CFD9FF1200D9CFE5FFE1CFD9FF00C01B
:10542000E5FF01C0E5FF02C0E5FF03C0E5FF04C0E2
:10543000E5FF05C0E5FF06C0E5FF07C0E5FF020E7A
:10544000DBCF00F0030EDBCF01F0040EDBCF02F068
:10545000050EDBCF03F029CF2AFF0F0128510F01E2
:105460002A5F2A0703C004F0056A030E0426D8B099
:10547000052A2ACF06F0076A0750800FF36E055001
:10548000800FF35C02E10450065C02E2E8682BD076
:10549000020E035C02E2E86A26D003060350E56EC2
:1054A00043EC30F0E652046A0350045C14E204500A
:1054B0000024056EE86A0120066EE86A022005C035
:1054C000E9FF06C0F3FF76EC35F0042AE56E43EC05
:1054D00030F0E652E9D729CF2AFF0F0128510F01FA
:1054E0002A5F2A07E86AE4CF07F0E4CF06F0E4CFAA
:1054F00005F0E4CF04F0E4CF03F0E4CF02F0E4CF12
:1055000001F0E4CF00F0E4CFD9FF1200D9CFE5FFDE
:10551000E1CFD9FF00C0E5FF01C0E5FF02C0E5FF14
:1055200003C0E5FF04C0E5FF05C0E5FF06C0E5FFD9
:10553000020EDBCF00F0030EDBCF01F0040EDBCF59
:1055400002F0050EDBCF03F0D88001AED890046ADC
:105550000436045007E0011C066E001C056E054A67
:10556000062A04D000C005F001C006F0D88003AEC2
:10557000D89007E3031C016E021C006E004A012A4A
:1055800004D002C000F003C001F00150E56E0050ED
:10559000E56E0650E56E0550E56E50EC2DF0006EA0
:1055A000F3CF01F0040EE12604500AE0011C036E63
:1055B000001C026E024A032A03C0F3FF025003D00C
:1055C00001C0F3FF0050E4CF06F0E4CF05F0E4CFD4
:1055D00004F0E4CF03F0E4CF02F0E4CF01F0E4CF35
:1055E00000F0E4CFD9FF1200D9CFE5FFE1CFD9FF1A
:1055F00000C0E5FF01C0E5FF02C0E5FF03C0E5FF15
:1056000004C0E5FF05C0E5FF020EDBCF00F0030E8E
:10561000DBCF01F0040EDBCF02F0050EDBCF03F091
:105620007FCA04F080CA05F00A017F3F01D0802BB9
:105630000350E56E0450E56E66EC33F0E652E65238
:105640007FCA04F080CA05F00A017F3F01D0802B99
:105650000250056EE56E0450E56E66EC33F0E652DE
:10566000E6527FCA04F080CA05F00A017F3F01D0EC
:10567000802B0150056EE56E0450E56E66EC33F04C
:10568000E652E6527FCA04F080CA05F00A017F3F65
:1056900001D0802B0050E56E0450E56E66EC33F0CF
:1056A000E652E652E4CF05F0E4CF04F0E4CF03F095
:1056B000E4CF02F0E4CF01F0E4CF00F0E4CFD9FF73
:1056C0001200D9CFE5FFE1CFD9FF00C0E5FF01C04F
:1056D000E5FF02C0E5FF03C0E5FF04C0E5FF05C02C
:1056E000E5FF06C0E5FF020EDBCF00F0030EDBCFC7
:1056F00001F0040EDBCF02F00A018D5119E1B9EC83
:1057000025F0036EF3CF04F0F4CF05F0E9CF06F0F7
:1057100003C0E5FF04C0F4FF05C0F6FF06C0F7FFB5
:1057200000C0E9FF01C0F3FF025087EC35F01ED046
:105730000A018D51010A1AE100C0E9FF01C0F3FF1F
:105740000250D8EC33F0006EF3CF01F0F4CF02F04A
:10575000E9CF03F00350E56E0250E56E0150E56EAF
:105760000050E56EF4EC2AF0040EE126E4CF06F0DA
:10577000E4CF05F0E4CF04F0E4CF03F0E4CF02F08F
:10578000E4CF01F0E4CF00F0E4CFD9FF1200D9CF8D
:10579000E5FFE1CFD9FF00C0E5FF01C0E5FF02C092
:1057A000E5FF03C0E5FF04C0E5FF020EDBCF00F01C
:1057B000030EDBCF01F0040EDBCF02F00050070F29
:1057C000036E000E0120046E000E0220E56E0450F0
:1057D000E56E0350E56EC7EC2FF0030EE126005096
:1057E000230F036E000E0120046E000E0220E56EF2
:1057F0000450E56E0350E56EADEC2DF0030EE1268E
:105800000050330F036E000E0120046E000E0220C4
:10581000E56E0450E56E0350E56EF1EC2CF0030EDE
:10582000E126440E0026000E012202220250E56EFF
:105830000150E56E0050E56EF1EC2CF0030EE12610
:10584000E4CF04F0E4CF03F0E4CF02F0E4CF01F0C2
:10585000E4CF00F0E4CFD9FF1200D9CFE5FFE1CFCC
:10586000D9FF00C0E5FF01C0E5FF02C0E5FF03C0AE
:10587000E5FF04C0E5FF05C0E5FF06C0E5FF020E39
:10588000DBCF00F0030EDBCF01F0040EDBCF02F024
:10589000050EDBCF03F0060EDBCF04F0070EDBCFE7
:1058A00005F0080EDBCF06F0D88003AED89015E3E4
:1058B00006500A0A12E104C0E9FF05C0EAFF2D0EF6
:1058C000EF6E044A052A031E021E011E006C05E14C
:1058D000012A03E1022AD8B4032A0650E56E0550D6
:1058E000E56E0450E56E0350E56E0250E56E015022
:1058F000E56E0050E56E7EEC21F0070EE126E4CF68
:1059000006F0E4CF05F0E4CF04F0E4CF03F0E4CFF9
:1059100002F0E4CF01F0E4CF00F0E4CFD9FF1200B1
:1059200000C0E5FF01C0E5FF02C0E5FF420E34EC18
:1059300032F0006A810E0024016E026A040E022217
:1059400001C0E9FF02C0EAFFEFCF01F0015034ECE3
:1059500032F0002A080E005CEDE3006A000E00241D
:10596000016E026A0A0E022201C0E9FF02C0EAFFCC
:10597000EFCF01F0015034EC32F0002A080E005C49
:10598000EDE3006A080E0024016E026A000E012693
:105990000A0E022201C0E9FF02C0EAFFEFCF01F0C8
:1059A000015034EC32F0002A080E005CEBE3006A90
:1059B000040135B1002A0050020DF3CF00F0016A56
:1059C00035B3012A01500026005034EC32F00A0EA3
:1059D00034EC32F0E4CF02F0E4CF01F0E4CF00F099
:1059E0001200D9CFE5FFE1CFD9FF00C0E5FF01C02C
:1059F000E5FF02C0E5FF03C0E5FF04C0E5FF020EBE
:105A0000DBCF00F0030EDBCF01F0040EDBCF02F0A2
:105A10000250E56E0150E56E0050E56EC7EC2FF0C8
:105A2000030EE1260050010F036E000E0120046EEC
:105A3000000E0220E56E0450E56E0350E56EC7ECE3
:105A40002FF0030EE1260050020F036E000E01201E
:105A5000046E000E0220E56E0450E56E0350E56E04
:105A6000C7EC2FF0030EE1260F0E0026000E0122D8
:105A700002220250E56E0150E56E0050E56EA9EC81
:105A80002EF0030EE126E4CF04F0E4CF03F0E4CFE0
:105A900002F0E4CF01F0E4CF00F0E4CFD9FF120030
:105AA000D9CFE5FFE1CFD9FF00C0E5FF01C0E5FF99
:105AB00002C0E5FF03C0E5FF04C0E5FF05C0E5FF48
:105AC00006C0E5FF020EDBCF00F0030EDBCF01F0D6
:105AD000040EDBCF02F0050EDBCF03F0046A056A8B
